{
  "_format": "hh-sol-artifact-1",
  "contractName": "PVEArena",
  "sourceName": "contracts/PVEArena.sol",
  "abi": [
    {
      "inputs": [],
      "stateMutability": "nonpayable",
      "type": "constructor"
    },
    {
      "anonymous": false,
      "inputs": [
        {
          "indexed": true,
          "internalType": "address",
          "name": "owner",
          "type": "address"
        },
        {
          "indexed": true,
          "internalType": "address",
          "name": "approved",
          "type": "address"
        },
        {
          "indexed": true,
          "internalType": "uint256",
          "name": "tokenId",
          "type": "uint256"
        }
      ],
      "name": "Approval",
      "type": "event"
    },
    {
      "anonymous": false,
      "inputs": [
        {
          "indexed": true,
          "internalType": "address",
          "name": "owner",
          "type": "address"
        },
        {
          "indexed": true,
          "internalType": "address",
          "name": "operator",
          "type": "address"
        },
        {
          "indexed": false,
          "internalType": "bool",
          "name": "approved",
          "type": "bool"
        }
      ],
      "name": "ApprovalForAll",
      "type": "event"
    },
    {
      "anonymous": false,
      "inputs": [
        {
          "indexed": true,
          "internalType": "bytes32",
          "name": "requestId",
          "type": "bytes32"
        },
        {
          "indexed": true,
          "internalType": "uint256",
          "name": "result",
          "type": "uint256"
        }
      ],
      "name": "DiceLanded",
      "type": "event"
    },
    {
      "anonymous": false,
      "inputs": [
        {
          "indexed": true,
          "internalType": "bytes32",
          "name": "requestId",
          "type": "bytes32"
        },
        {
          "indexed": true,
          "internalType": "address",
          "name": "roller",
          "type": "address"
        }
      ],
      "name": "DiceRolled",
      "type": "event"
    },
    {
      "anonymous": false,
      "inputs": [
        {
          "indexed": false,
          "internalType": "address",
          "name": "sender",
          "type": "address"
        },
        {
          "indexed": false,
          "internalType": "uint256",
          "name": "tokenId",
          "type": "uint256"
        }
      ],
      "name": "NFTMinted",
      "type": "event"
    },
    {
      "anonymous": false,
      "inputs": [
        {
          "indexed": true,
          "internalType": "address",
          "name": "previousOwner",
          "type": "address"
        },
        {
          "indexed": true,
          "internalType": "address",
          "name": "newOwner",
          "type": "address"
        }
      ],
      "name": "OwnershipTransferred",
      "type": "event"
    },
    {
      "anonymous": false,
      "inputs": [
        {
          "indexed": true,
          "internalType": "address",
          "name": "from",
          "type": "address"
        },
        {
          "indexed": true,
          "internalType": "address",
          "name": "to",
          "type": "address"
        },
        {
          "indexed": true,
          "internalType": "uint256",
          "name": "tokenId",
          "type": "uint256"
        }
      ],
      "name": "Transfer",
      "type": "event"
    },
    {
      "anonymous": false,
      "inputs": [
        {
          "indexed": false,
          "internalType": "uint256",
          "name": "id",
          "type": "uint256"
        },
        {
          "indexed": false,
          "internalType": "string",
          "name": "name",
          "type": "string"
        }
      ],
      "name": "createdEnemy",
      "type": "event"
    },
    {
      "inputs": [
        {
          "internalType": "address",
          "name": "to",
          "type": "address"
        },
        {
          "internalType": "uint256",
          "name": "tokenId",
          "type": "uint256"
        }
      ],
      "name": "approve",
      "outputs": [],
      "stateMutability": "nonpayable",
      "type": "function"
    },
    {
      "inputs": [
        {
          "internalType": "address",
          "name": "owner",
          "type": "address"
        }
      ],
      "name": "balanceOf",
      "outputs": [
        {
          "internalType": "uint256",
          "name": "",
          "type": "uint256"
        }
      ],
      "stateMutability": "view",
      "type": "function"
    },
    {
      "inputs": [
        {
          "internalType": "string",
          "name": "_name",
          "type": "string"
        },
        {
          "internalType": "uint8",
          "name": "_chance",
          "type": "uint8"
        }
      ],
      "name": "createEnemy",
      "outputs": [],
      "stateMutability": "nonpayable",
      "type": "function"
    },
    {
      "inputs": [
        {
          "internalType": "address",
          "name": "_contract",
          "type": "address"
        }
      ],
      "name": "createUC3MToken",
      "outputs": [],
      "stateMutability": "nonpayable",
      "type": "function"
    },
    {
      "inputs": [
        {
          "internalType": "string",
          "name": "_name",
          "type": "string"
        },
        {
          "internalType": "string",
          "name": "_img",
          "type": "string"
        }
      ],
      "name": "createUC3Mon",
      "outputs": [],
      "stateMutability": "nonpayable",
      "type": "function"
    },
    {
      "inputs": [
        {
          "internalType": "string",
          "name": "_name",
          "type": "string"
        },
        {
          "internalType": "address",
          "name": "_owner",
          "type": "address"
        }
      ],
      "name": "createUC3MonToAddress",
      "outputs": [],
      "stateMutability": "nonpayable",
      "type": "function"
    },
    {
      "inputs": [
        {
          "internalType": "uint256",
          "name": "",
          "type": "uint256"
        }
      ],
      "name": "enemies",
      "outputs": [
        {
          "internalType": "string",
          "name": "name",
          "type": "string"
        },
        {
          "internalType": "uint8",
          "name": "chance",
          "type": "uint8"
        }
      ],
      "stateMutability": "view",
      "type": "function"
    },
    {
      "inputs": [
        {
          "internalType": "uint256",
          "name": "_monId",
          "type": "uint256"
        },
        {
          "internalType": "uint256",
          "name": "_enemyId",
          "type": "uint256"
        }
      ],
      "name": "fight",
      "outputs": [],
      "stateMutability": "nonpayable",
      "type": "function"
    },
    {
      "inputs": [
        {
          "internalType": "uint256",
          "name": "_monId",
          "type": "uint256"
        },
        {
          "internalType": "uint256",
          "name": "_enemyId",
          "type": "uint256"
        }
      ],
      "name": "fightResult",
      "outputs": [],
      "stateMutability": "nonpayable",
      "type": "function"
    },
    {
      "inputs": [
        {
          "internalType": "uint256",
          "name": "tokenId",
          "type": "uint256"
        }
      ],
      "name": "getApproved",
      "outputs": [
        {
          "internalType": "address",
          "name": "",
          "type": "address"
        }
      ],
      "stateMutability": "view",
      "type": "function"
    },
    {
      "inputs": [
        {
          "internalType": "uint256",
          "name": "_id",
          "type": "uint256"
        }
      ],
      "name": "getMonInfo",
      "outputs": [
        {
          "components": [
            {
              "internalType": "string",
              "name": "name",
              "type": "string"
            },
            {
              "internalType": "string",
              "name": "img",
              "type": "string"
            },
            {
              "internalType": "uint256",
              "name": "dna",
              "type": "uint256"
            },
            {
              "internalType": "int32",
              "name": "level",
              "type": "int32"
            },
            {
              "internalType": "uint32",
              "name": "exp",
              "type": "uint32"
            },
            {
              "internalType": "bool",
              "name": "fighting",
              "type": "bool"
            }
          ],
          "internalType": "struct NFT.UC3Mon",
          "name": "",
          "type": "tuple"
        }
      ],
      "stateMutability": "view",
      "type": "function"
    },
    {
      "inputs": [
        {
          "internalType": "address",
          "name": "_owner",
          "type": "address"
        }
      ],
      "name": "getMonsByOwner",
      "outputs": [
        {
          "internalType": "uint256[]",
          "name": "",
          "type": "uint256[]"
        }
      ],
      "stateMutability": "view",
      "type": "function"
    },
    {
      "inputs": [],
      "name": "getMsgSender",
      "outputs": [
        {
          "internalType": "address",
          "name": "",
          "type": "address"
        }
      ],
      "stateMutability": "view",
      "type": "function"
    },
    {
      "inputs": [],
      "name": "getOwnedMons",
      "outputs": [
        {
          "internalType": "uint256[]",
          "name": "",
          "type": "uint256[]"
        }
      ],
      "stateMutability": "view",
      "type": "function"
    },
    {
      "inputs": [
        {
          "internalType": "address",
          "name": "_player",
          "type": "address"
        }
      ],
      "name": "getRolledNumber",
      "outputs": [
        {
          "internalType": "uint256",
          "name": "result",
          "type": "uint256"
        }
      ],
      "stateMutability": "view",
      "type": "function"
    },
    {
      "inputs": [],
      "name": "getTokenOwner",
      "outputs": [
        {
          "internalType": "address",
          "name": "",
          "type": "address"
        }
      ],
      "stateMutability": "view",
      "type": "function"
    },
    {
      "inputs": [
        {
          "internalType": "uint256",
          "name": "_supply",
          "type": "uint256"
        }
      ],
      "name": "initialSupply",
      "outputs": [],
      "stateMutability": "nonpayable",
      "type": "function"
    },
    {
      "inputs": [
        {
          "internalType": "address",
          "name": "owner",
          "type": "address"
        },
        {
          "internalType": "address",
          "name": "operator",
          "type": "address"
        }
      ],
      "name": "isApprovedForAll",
      "outputs": [
        {
          "internalType": "bool",
          "name": "",
          "type": "bool"
        }
      ],
      "stateMutability": "view",
      "type": "function"
    },
    {
      "inputs": [],
      "name": "name",
      "outputs": [
        {
          "internalType": "string",
          "name": "",
          "type": "string"
        }
      ],
      "stateMutability": "view",
      "type": "function"
    },
    {
      "inputs": [],
      "name": "owner",
      "outputs": [
        {
          "internalType": "address",
          "name": "",
          "type": "address"
        }
      ],
      "stateMutability": "view",
      "type": "function"
    },
    {
      "inputs": [
        {
          "internalType": "uint256",
          "name": "tokenId",
          "type": "uint256"
        }
      ],
      "name": "ownerOf",
      "outputs": [
        {
          "internalType": "address",
          "name": "",
          "type": "address"
        }
      ],
      "stateMutability": "view",
      "type": "function"
    },
    {
      "inputs": [
        {
          "internalType": "bytes32",
          "name": "requestId",
          "type": "bytes32"
        },
        {
          "internalType": "uint256",
          "name": "randomness",
          "type": "uint256"
        }
      ],
      "name": "rawFulfillRandomness",
      "outputs": [],
      "stateMutability": "nonpayable",
      "type": "function"
    },
    {
      "inputs": [],
      "name": "renounceOwnership",
      "outputs": [],
      "stateMutability": "nonpayable",
      "type": "function"
    },
    {
      "inputs": [
        {
          "internalType": "address",
          "name": "from",
          "type": "address"
        },
        {
          "internalType": "address",
          "name": "to",
          "type": "address"
        },
        {
          "internalType": "uint256",
          "name": "tokenId",
          "type": "uint256"
        }
      ],
      "name": "safeTransferFrom",
      "outputs": [],
      "stateMutability": "nonpayable",
      "type": "function"
    },
    {
      "inputs": [
        {
          "internalType": "address",
          "name": "from",
          "type": "address"
        },
        {
          "internalType": "address",
          "name": "to",
          "type": "address"
        },
        {
          "internalType": "uint256",
          "name": "tokenId",
          "type": "uint256"
        },
        {
          "internalType": "bytes",
          "name": "_data",
          "type": "bytes"
        }
      ],
      "name": "safeTransferFrom",
      "outputs": [],
      "stateMutability": "nonpayable",
      "type": "function"
    },
    {
      "inputs": [
        {
          "internalType": "address",
          "name": "operator",
          "type": "address"
        },
        {
          "internalType": "bool",
          "name": "approved",
          "type": "bool"
        }
      ],
      "name": "setApprovalForAll",
      "outputs": [],
      "stateMutability": "nonpayable",
      "type": "function"
    },
    {
      "inputs": [
        {
          "internalType": "bytes4",
          "name": "interfaceId",
          "type": "bytes4"
        }
      ],
      "name": "supportsInterface",
      "outputs": [
        {
          "internalType": "bool",
          "name": "",
          "type": "bool"
        }
      ],
      "stateMutability": "view",
      "type": "function"
    },
    {
      "inputs": [],
      "name": "symbol",
      "outputs": [
        {
          "internalType": "string",
          "name": "",
          "type": "string"
        }
      ],
      "stateMutability": "view",
      "type": "function"
    },
    {
      "inputs": [
        {
          "internalType": "uint256",
          "name": "_tokenId",
          "type": "uint256"
        }
      ],
      "name": "tokenURI",
      "outputs": [
        {
          "internalType": "string",
          "name": "",
          "type": "string"
        }
      ],
      "stateMutability": "view",
      "type": "function"
    },
    {
      "inputs": [
        {
          "internalType": "address",
          "name": "from",
          "type": "address"
        },
        {
          "internalType": "address",
          "name": "to",
          "type": "address"
        },
        {
          "internalType": "uint256",
          "name": "tokenId",
          "type": "uint256"
        }
      ],
      "name": "transferFrom",
      "outputs": [],
      "stateMutability": "nonpayable",
      "type": "function"
    },
    {
      "inputs": [
        {
          "internalType": "address",
          "name": "newOwner",
          "type": "address"
        }
      ],
      "name": "transferOwnership",
      "outputs": [],
      "stateMutability": "nonpayable",
      "type": "function"
    },
    {
      "inputs": [],
      "name": "uc3mToken",
      "outputs": [
        {
          "internalType": "contract UC3MCoin",
          "name": "",
          "type": "address"
        }
      ],
      "stateMutability": "view",
      "type": "function"
    },
    {
      "inputs": [
        {
          "internalType": "uint256",
          "name": "",
          "type": "uint256"
        }
      ],
      "name": "uc3mons",
      "outputs": [
        {
          "internalType": "string",
          "name": "name",
          "type": "string"
        },
        {
          "internalType": "string",
          "name": "img",
          "type": "string"
        },
        {
          "internalType": "uint256",
          "name": "dna",
          "type": "uint256"
        },
        {
          "internalType": "int32",
          "name": "level",
          "type": "int32"
        },
        {
          "internalType": "uint32",
          "name": "exp",
          "type": "uint32"
        },
        {
          "internalType": "bool",
          "name": "fighting",
          "type": "bool"
        }
      ],
      "stateMutability": "view",
      "type": "function"
    }
  ],
  "bytecode": "0x60c0604052601060078190556200001890600a620002ac565b600855601180546001600160a01b031990811673b3dccb4cf7a26f6cf6b120cf5a73875b7bbc655b17909155601280549091167301be23585060835e02b77ef475b0cc51aa1e07091790557f2ed0feb3e7fd2022120aa84fab1945545a9f2ffc9076fd6156fa96eaff4c131160135567016345785d8a0000601455348015620000a057600080fd5b5060115460125460135460145460408051808201825260068152652aa199a6b7b760d11b602080830191825283518085019094526004845263784fc8df60e11b908401526001600160601b0319606088811b821660a05287901b1660805281516001600160a01b039788169796909616959192916200012291600191620001bd565b50805162000138906002906020840190620001bd565b505050620001556200014f6200016760201b60201c565b6200016b565b600b91909155600c5550620003ca9050565b3390565b600a80546001600160a01b038381166001600160a01b0319831681179093556040519116919082907f8be0079c531659141344cd1fd0a4f28419497f9722a3daafe3b4186f6b6457e090600090a35050565b828054620001cb9062000377565b90600052602060002090601f016020900481019282620001ef57600085556200023a565b82601f106200020a57805160ff19168380011785556200023a565b828001600101855582156200023a579182015b828111156200023a5782518255916020019190600101906200021d565b50620002489291506200024c565b5090565b5b808211156200024857600081556001016200024d565b600181815b80851115620002a4578160001904821115620002885762000288620003b4565b808516156200029657918102915b93841c939080029062000268565b509250929050565b6000620002ba8383620002c1565b9392505050565b600082620002d25750600162000371565b81620002e15750600062000371565b8160018114620002fa5760028114620003055762000325565b600191505062000371565b60ff841115620003195762000319620003b4565b50506001821b62000371565b5060208310610133831016604e8410600b84101617156200034a575081810a62000371565b62000356838362000263565b80600019048211156200036d576200036d620003b4565b0290505b92915050565b600181811c908216806200038c57607f821691505b60208210811415620003ae57634e487b7160e01b600052602260045260246000fd5b50919050565b634e487b7160e01b600052601160045260246000fd5b60805160601c60a05160601c6146c5620004046000396000818161141501526135db015260008181612f7b01526135ac01526146c56000f3fe608060405234801561001057600080fd5b506004361061020b5760003560e01c80637a6ce2e11161012a578063b88d4fde116100bd578063c96691791161008c578063e985e9c511610071578063e985e9c51461048c578063f2fde38b146104c8578063f78f2c22146104db57600080fd5b8063c966917914610450578063ca39e5ef1461047957600080fd5b8063b88d4fde14610404578063c3b719a014610417578063c7aa652a1461042a578063c87b56dd1461043d57600080fd5b806395d89b41116100f957806395d89b41146103d9578063a22cb465146103e1578063a9ffc3a4146103f4578063b7182b95146103fc57600080fd5b80637a6ce2e11461039c5780637da3cd76146103a25780638da5cb5b146103b557806394985ddd146103c657600080fd5b806343c7db3b116101a25780635cb9d577116101715780635cb9d577146103405780636352211e1461036057806370a0823114610373578063715018a61461039457600080fd5b806343c7db3b146102d957806354341980146102ec5780635b31045b1461030d5780635b99e7a91461032057600080fd5b806323b872dd116101de57806323b872dd1461028d578063362b4596146102a05780633ffb11fd146102b357806342842e0e146102c657600080fd5b806301ffc9a71461021057806306fdde0314610238578063081812fc1461024d578063095ea7b314610278575b600080fd5b61022361021e366004613a2a565b610500565b60405190151581526020015b60405180910390f35b6102406105e5565b60405161022f9190613fdc565b61026061025b366004613b5c565b610677565b6040516001600160a01b03909116815260200161022f565b61028b6102863660046139bf565b610722565b005b61028b61029b3660046138d0565b610854565b61028b6102ae366004613a64565b6108db565b61028b6102c1366004613a08565b610973565b61028b6102d43660046138d0565b610cfc565b61028b6102e7366004613aab565b610d17565b6102ff6102fa366004613b5c565b610d8c565b60405161022f929190614160565b61028b61031b366004613b0f565b610e4b565b61033361032e36600461385d565b610fe8565b60405161022f9190613f98565b61035361034e366004613b5c565b6110b0565b60405161022f9190614185565b61026061036e366004613b5c565b61127f565b61038661038136600461385d565b61130a565b60405190815260200161022f565b61028b6113a4565b33610260565b601054610260906001600160a01b031681565b600a546001600160a01b0316610260565b61028b6103d4366004613a08565b61140a565b610240611490565b61028b6103ef366004613991565b61149f565b6103336114aa565b610260611568565b61028b610412366004613911565b611603565b61028b610425366004613b5c565b61168b565b61028b61043836600461385d565b61170b565b61024061044b366004613b5c565b611794565b61038661045e36600461385d565b6001600160a01b03166000908152600f602052604090205490565b61028b610487366004613a08565b6118ef565b61022361049a366004613897565b6001600160a01b03918216600090815260066020908152604080832093909416825291909152205460ff1690565b61028b6104d636600461385d565b611c42565b6104ee6104e9366004613b5c565b611d24565b60405161022f969594939291906140bd565b60007fffffffff0000000000000000000000000000000000000000000000000000000082167f80ac58cd00000000000000000000000000000000000000000000000000000000148061059357507fffffffff0000000000000000000000000000000000000000000000000000000082167f5b5e139f00000000000000000000000000000000000000000000000000000000145b806105df57507f01ffc9a7000000000000000000000000000000000000000000000000000000007fffffffff000000000000000000000000000000000000000000000000000000008316145b92915050565b6060600180546105f4906144dc565b80601f0160208091040260200160405190810160405280929190818152602001828054610620906144dc565b801561066d5780601f106106425761010080835404028352916020019161066d565b820191906000526020600020905b81548152906001019060200180831161065057829003601f168201915b5050505050905090565b6000818152600360205260408120546001600160a01b03166107065760405162461bcd60e51b815260206004820152602c60248201527f4552433732313a20617070726f76656420717565727920666f72206e6f6e657860448201527f697374656e7420746f6b656e000000000000000000000000000000000000000060648201526084015b60405180910390fd5b506000908152600560205260409020546001600160a01b031690565b600061072d8261127f565b9050806001600160a01b0316836001600160a01b031614156107b75760405162461bcd60e51b815260206004820152602160248201527f4552433732313a20617070726f76616c20746f2063757272656e74206f776e6560448201527f720000000000000000000000000000000000000000000000000000000000000060648201526084016106fd565b336001600160a01b03821614806107d357506107d3813361049a565b6108455760405162461bcd60e51b815260206004820152603860248201527f4552433732313a20617070726f76652063616c6c6572206973206e6f74206f7760448201527f6e6572206e6f7220617070726f76656420666f7220616c6c000000000000000060648201526084016106fd565b61084f8383611e98565b505050565b61085e3382611f13565b6108d05760405162461bcd60e51b815260206004820152603160248201527f4552433732313a207472616e736665722063616c6c6572206973206e6f74206f60448201527f776e6572206e6f7220617070726f76656400000000000000000000000000000060648201526084016106fd565b61084f83838361201b565b600a546001600160a01b031633146109355760405162461bcd60e51b815260206004820181905260248201527f4f776e61626c653a2063616c6c6572206973206e6f7420746865206f776e657260448201526064016106fd565b6000610940836121f5565b905060006040518060600160405280602e8152602001614662602e9139905061096d848284600187612214565b50505050565b61097c8261127f565b6001600160a01b0381166000908152600f6020526040902054610a075760405162461bcd60e51b815260206004820152602160248201527f506c6179657220686173206e6f7420656e676167656420696e20626174746c6560448201527f210000000000000000000000000000000000000000000000000000000000000060648201526084016106fd565b6001600160a01b0381166000908152600f60205260409020546109c41415610a715760405162461bcd60e51b815260206004820152601360248201527f426174746c6520696e2070726f6772657373210000000000000000000000000060448201526064016106fd565b6000610a7c8461127f565b6001600160a01b038116600090815260166020526040902054909150831415610b0d5760405162461bcd60e51b815260206004820152602d60248201527f466967687420616c7265616479207265736f6c7665642c20726577617264206160448201527f6c7265616479206561726e65640000000000000000000000000000000000000060648201526084016106fd565b6001600160a01b0381166000908152601660205260408120849055610b33908590612410565b600060158481548110610b4857610b48614572565b6000918252602082206001600290920201015460ff169150610b6b82606461448d565b9050610ba08360158781548110610b8457610b84614572565b600091825260209091206001600290920201015460ff16612450565b15610c9f57610be36040518060400160405280600c81526020017f506c617965722077696e732100000000000000000000000000000000000000008152506124ea565b60006005610bf484830b6064614407565b60098981548110610c0757610c07614572565b600091825260209091206003600490920201810154610c28910b6064614359565b610c329190614359565b610c3c91906142c5565b60098881548110610c4f57610c4f614572565b600091825260209091206003600490920201810154610c70910b6064614359565b610c7a9190614217565b63ffffffff169050610c8c848261255b565b610c99878360ff166125d6565b50610cf4565b610cdd6040518060400160405280600d81526020017f4d6f6e737465722077696e7321000000000000000000000000000000000000008152506124ea565b610cf486610cec600a84614337565b60ff166125d6565b505050505050565b61084f83838360405180602001604052806000815250611603565b600a546001600160a01b03163314610d715760405162461bcd60e51b815260206004820181905260248201527f4f776e61626c653a2063616c6c6572206973206e6f7420746865206f776e657260448201526064016106fd565b6000610d7c836121f5565b905061084f838383600133612214565b60158181548110610d9c57600080fd5b9060005260206000209060020201600091509050806000018054610dbf906144dc565b80601f0160208091040260200160405190810160405280929190818152602001828054610deb906144dc565b8015610e385780601f10610e0d57610100808354040283529160200191610e38565b820191906000526020600020905b815481529060010190602001808311610e1b57829003601f168201915b5050506001909301549192505060ff1682565b600a546001600160a01b03163314610ea55760405162461bcd60e51b815260206004820181905260248201527f4f776e61626c653a2063616c6c6572206973206e6f7420746865206f776e657260448201526064016106fd565b6040805180820190915282815260ff8216602080830191909152601580546001810182556000919091528251805160029092027f55f448fdea98c4d29eb340757ef0a66cd03dbb9538908a6a81d96026b71ec4750192610f0a9284929091019061372e565b50602091909101516001918201805460ff191660ff909216919091179055601554600091610f3791614451565b90507fcce27da5415e2a1b970ff97d07827ffc2f208330cdf38173baadf37ddd6492668184604051610f6a9291906141fe565b60405180910390a161084f6040518060400160405280601781526020017f4372656174656420656e656d792077697468206e616d65000000000000000000815250846040518060400160405280600681526020017f616e64204944000000000000000000000000000000000000000000000000000081525084612734565b60606000610ff58361130a565b67ffffffffffffffff81111561100d5761100d614588565b604051908082528060200260200182016040528015611036578160200160208202803683370190505b5090506000805b6009548110156110a757846001600160a01b031661105a8261127f565b6001600160a01b03161415611095578083838151811061107c5761107c614572565b60209081029190910101528161109181614517565b9250505b8061109f81614517565b91505061103d565b50909392505050565b6040805160c081018252606080825260208201819052600092820183905281018290526080810182905260a0810191909152600982815481106110f5576110f5614572565b90600052602060002090600402016040518060c001604052908160008201805461111e906144dc565b80601f016020809104026020016040519081016040528092919081815260200182805461114a906144dc565b80156111975780601f1061116c57610100808354040283529160200191611197565b820191906000526020600020905b81548152906001019060200180831161117a57829003601f168201915b505050505081526020016001820180546111b0906144dc565b80601f01602080910402602001604051908101604052809291908181526020018280546111dc906144dc565b80156112295780601f106111fe57610100808354040283529160200191611229565b820191906000526020600020905b81548152906001019060200180831161120c57829003601f168201915b50505091835250506002820154602082015260039182015480830b830b90920b6040820152640100000000820463ffffffff1660608201526801000000000000000090910460ff16151560809091015292915050565b6000818152600360205260408120546001600160a01b0316806105df5760405162461bcd60e51b815260206004820152602960248201527f4552433732313a206f776e657220717565727920666f72206e6f6e657869737460448201527f656e7420746f6b656e000000000000000000000000000000000000000000000060648201526084016106fd565b60006001600160a01b0382166113885760405162461bcd60e51b815260206004820152602a60248201527f4552433732313a2062616c616e636520717565727920666f7220746865207a6560448201527f726f20616464726573730000000000000000000000000000000000000000000060648201526084016106fd565b506001600160a01b031660009081526004602052604090205490565b600a546001600160a01b031633146113fe5760405162461bcd60e51b815260206004820181905260248201527f4f776e61626c653a2063616c6c6572206973206e6f7420746865206f776e657260448201526064016106fd565b61140860006127ab565b565b336001600160a01b037f000000000000000000000000000000000000000000000000000000000000000016146114825760405162461bcd60e51b815260206004820152601f60248201527f4f6e6c7920565246436f6f7264696e61746f722063616e2066756c66696c6c0060448201526064016106fd565b61148c828261280a565b5050565b6060600280546105f4906144dc565b61148c3383836128ed565b606060006114b73361130a565b67ffffffffffffffff8111156114cf576114cf614588565b6040519080825280602002602001820160405280156114f8578160200160208202803683370190505b5090506000805b60095481101561156057336115138261127f565b6001600160a01b0316141561154e578083838151811061153557611535614572565b60209081029190910101528161154a81614517565b9250505b8061155881614517565b9150506114ff565b509092915050565b601054604080517f8da5cb5b00000000000000000000000000000000000000000000000000000000815290516000926001600160a01b031691638da5cb5b916004808301926020929190829003018186803b1580156115c657600080fd5b505afa1580156115da573d6000803e3d6000fd5b505050506040513d601f19601f820116820180604052508101906115fe919061387a565b905090565b61160d3383611f13565b61167f5760405162461bcd60e51b815260206004820152603160248201527f4552433732313a207472616e736665722063616c6c6572206973206e6f74206f60448201527f776e6572206e6f7220617070726f76656400000000000000000000000000000060648201526084016106fd565b61096d848484846129bc565b6010546040517f40c10f19000000000000000000000000000000000000000000000000000000008152306004820152602481018390526001600160a01b03909116906340c10f1990604401600060405180830381600087803b1580156116f057600080fd5b505af1158015611704573d6000803e3d6000fd5b5050505050565b600a546001600160a01b031633146117655760405162461bcd60e51b815260206004820181905260248201527f4f776e61626c653a2063616c6c6572206973206e6f7420746865206f776e657260448201526064016106fd565b6010805473ffffffffffffffffffffffffffffffffffffffff19166001600160a01b0392909216919091179055565b606060006118c2600984815481106117ae576117ae614572565b90600052602060002090600402016000016117c885612a45565b600986815481106117db576117db614572565b90600052602060002090600402016001016118196009888154811061180257611802614572565b906000526020600020906004020160020154612a45565b6118516009898154811061182f5761182f614572565b60009182526020909120600360049092020181015463ffffffff910b16612a45565b61188e60098a8154811061186757611867614572565b6000918252602090912060049091020160030154640100000000900463ffffffff16612a45565b6118986064612a45565b6040516020016118ae9796959493929190613c70565b604051602081830303815290604052612b77565b90506000816040516020016118d79190613ee6565b60408051601f19818403018152919052949350505050565b6009828154811061190257611902614572565b906000526020600020906004020160030160089054906101000a900460ff16156119945760405162461bcd60e51b815260206004820152602260248201527f5543334d6f6e20616c726561647920656e676167656420696e2061206669676860448201527f742100000000000000000000000000000000000000000000000000000000000060648201526084016106fd565b61199f826001612410565b60006119aa8361127f565b9050611b7a6040518060400160405280600981526020017f46696768746572733a0000000000000000000000000000000000000000000000815250600985815481106119f8576119f8614572565b90600052602060002090600402016000018054611a14906144dc565b80601f0160208091040260200160405190810160405280929190818152602001828054611a40906144dc565b8015611a8d5780601f10611a6257610100808354040283529160200191611a8d565b820191906000526020600020905b815481529060010190602001808311611a7057829003601f168201915b50505050506040518060400160405280600281526020017f767300000000000000000000000000000000000000000000000000000000000081525060158681548110611adb57611adb614572565b90600052602060002090600202016000018054611af7906144dc565b80601f0160208091040260200160405190810160405280929190818152602001828054611b23906144dc565b8015611b705780601f10611b4557610100808354040283529160200191611b70565b820191906000526020600020905b815481529060010190602001808311611b5357829003601f168201915b5050505050612d32565b600060158381548110611b8f57611b8f614572565b60009182526020918290206001600290920201810154604080518082018252601681527f46696768742120566963746f7279206368616e63653a000000000000000000008186015281518083019092529281527f25000000000000000000000000000000000000000000000000000000000000009381019390935260ff169250611c1a918390612da9565b6001600160a01b03821660009081526016602052604090206000199055611704826064612e1e565b600a546001600160a01b03163314611c9c5760405162461bcd60e51b815260206004820181905260248201527f4f776e61626c653a2063616c6c6572206973206e6f7420746865206f776e657260448201526064016106fd565b6001600160a01b038116611d185760405162461bcd60e51b815260206004820152602660248201527f4f776e61626c653a206e6577206f776e657220697320746865207a65726f206160448201527f646472657373000000000000000000000000000000000000000000000000000060648201526084016106fd565b611d21816127ab565b50565b60098181548110611d3457600080fd5b9060005260206000209060040201600091509050806000018054611d57906144dc565b80601f0160208091040260200160405190810160405280929190818152602001828054611d83906144dc565b8015611dd05780601f10611da557610100808354040283529160200191611dd0565b820191906000526020600020905b815481529060010190602001808311611db357829003601f168201915b505050505090806001018054611de5906144dc565b80601f0160208091040260200160405190810160405280929190818152602001828054611e11906144dc565b8015611e5e5780601f10611e3357610100808354040283529160200191611e5e565b820191906000526020600020905b815481529060010190602001808311611e4157829003601f168201915b505050506002830154600393840154929390929081900b9150640100000000810463ffffffff169068010000000000000000900460ff1686565b6000818152600560205260409020805473ffffffffffffffffffffffffffffffffffffffff19166001600160a01b0384169081179091558190611eda8261127f565b6001600160a01b03167f8c5be1e5ebec7d5bd14f71427d1e84f3dd0314c0f7b2291e5b200ac8c7c3b92560405160405180910390a45050565b6000818152600360205260408120546001600160a01b0316611f9d5760405162461bcd60e51b815260206004820152602c60248201527f4552433732313a206f70657261746f7220717565727920666f72206e6f6e657860448201527f697374656e7420746f6b656e000000000000000000000000000000000000000060648201526084016106fd565b6000611fa88361127f565b9050806001600160a01b0316846001600160a01b03161480611fef57506001600160a01b0380821660009081526006602090815260408083209388168352929052205460ff165b806120135750836001600160a01b031661200884610677565b6001600160a01b0316145b949350505050565b826001600160a01b031661202e8261127f565b6001600160a01b0316146120aa5760405162461bcd60e51b815260206004820152602560248201527f4552433732313a207472616e736665722066726f6d20696e636f72726563742060448201527f6f776e657200000000000000000000000000000000000000000000000000000060648201526084016106fd565b6001600160a01b0382166121255760405162461bcd60e51b8152602060048201526024808201527f4552433732313a207472616e7366657220746f20746865207a65726f2061646460448201527f726573730000000000000000000000000000000000000000000000000000000060648201526084016106fd565b612130600082611e98565b6001600160a01b0383166000908152600460205260408120805460019290612159908490614451565b90915550506001600160a01b0382166000908152600460205260408120805460019290612187908490614260565b9091555050600081815260036020526040808220805473ffffffffffffffffffffffffffffffffffffffff19166001600160a01b0386811691821790925591518493918716917fddf252ad1be2c89b69c2b068fc378daa952ba7f163c4a11628f55a4df523b3ef91a4505050565b805160208201206008546000919061220d9082614532565b9392505050565b6040805160c0810182528681526020808201879052918101859052600384900b606082015260006080820181905260a0820181905260098054600181018255915281518051929360049092027f6e1540171b6c0c960b71a7020d9f60077f6af931a8bbf590da0223dacf75c7af0192612290928492019061372e565b5060208281015180516122a9926001850192019061372e565b5060408201516002820155606082015160039182018054608085015160a090950151151568010000000000000000027fffffffffffffffffffffffffffffffffffffffffffffff00ffffffffffffffff63ffffffff968716640100000000027fffffffffffffffffffffffffffffffffffffffffffffffff00000000000000009093169490950b90951692909217919091179190911691909117905560095460009061235790600190614451565b90506123986040518060400160405280601181526020017f4f776e6572206f66206e6577204e46543a00000000000000000000000000000081525033613108565b6123a2828261317b565b6123c66040518060600160405280603281526020016145f060329139878784612734565b604080516001600160a01b0384168152602081018390527f4cc0a9c4a99ddc700de1af2c9f916a7cbfdb71f14801ccff94061ad1ef8a8040910160405180910390a1505050505050565b806009838154811061242457612424614572565b906000526020600020906004020160030160086101000a81548160ff0219169083151502179055505050565b60006124b66040518060400160405280600e81526020017f4e756d62657220726f6c6c65643a000000000000000000000000000000000000815250600f6000866001600160a01b03166001600160a01b03168152602001908152602001600020546132ca565b6124c18260016142a0565b6001600160a01b0384166000908152600f602052604090205460ff919091161015905092915050565b611d21816040516024016124fe9190613fdc565b60408051601f198184030181529190526020810180517bffffffffffffffffffffffffffffffffffffffffffffffffffffffff167f41304fac00000000000000000000000000000000000000000000000000000000179052613339565b6010546040517f40c10f190000000000000000000000000000000000000000000000000000000081526001600160a01b03848116600483015260248201849052909116906340c10f1990604401600060405180830381600087803b1580156125c257600080fd5b505af1158015610cf4573d6000803e3d6000fd5b600982815481106125e9576125e9614572565b600091825260209091206003600490920201810154612609910b82614314565b6009838154811061261c5761261c614572565b906000526020600020906004020160030160048282829054906101000a900463ffffffff1661264b9190614278565b92506101000a81548163ffffffff021916908363ffffffff1602179055506103e86009838154811061267f5761267f614572565b6000918252602090912060049091020160030154640100000000900463ffffffff161061148c576000600983815481106126bb576126bb614572565b6000918252602090912060036004909202018101546126dc910b6001614217565b6103e8600985815481106126f2576126f2614572565b906000526020600020906004020160030160049054906101000a900463ffffffff1661271e9190614468565b6127289190614314565b905061084f838261335a565b61096d8484848460405160240161274e9493929190614072565b60408051601f198184030181529190526020810180517bffffffffffffffffffffffffffffffffffffffffffffffffffffffff167f9fd009f500000000000000000000000000000000000000000000000000000000179052613339565b600a80546001600160a01b0383811673ffffffffffffffffffffffffffffffffffffffff19831681179093556040519116919082907f8be0079c531659141344cd1fd0a4f28419497f9722a3daafe3b4186f6b6457e090600090a35050565b6000828152600d602052604090205463ffffffff1661286b5760405162461bcd60e51b815260206004820152600c60248201527f4d6f64756c6f207a65726f21000000000000000000000000000000000000000060448201526064016106fd565b6000828152600d602052604081205461288a9063ffffffff1683614532565b612895906001614260565b6000848152600e60209081526040808320546001600160a01b03168352600f90915280822083905551919250829185917f909dd726737b7ffa4ae9d137e9edebe8a74a9c2910a4b60e8112f93ab217083791a3505050565b816001600160a01b0316836001600160a01b0316141561294f5760405162461bcd60e51b815260206004820152601960248201527f4552433732313a20617070726f766520746f2063616c6c65720000000000000060448201526064016106fd565b6001600160a01b03838116600081815260066020908152604080832094871680845294825291829020805460ff191686151590811790915591519182527f17307eab39ab6107e8899845ad3d59bd9653f200f220920489ca2b5937696c31910160405180910390a3505050565b6129c784848461201b565b6129d3848484846133fb565b61096d5760405162461bcd60e51b815260206004820152603260248201527f4552433732313a207472616e7366657220746f206e6f6e20455243373231526560448201527f63656976657220696d706c656d656e746572000000000000000000000000000060648201526084016106fd565b606081612a8557505060408051808201909152600181527f3000000000000000000000000000000000000000000000000000000000000000602082015290565b8160005b8115612aaf5780612a9981614517565b9150612aa89050600a83614300565b9150612a89565b60008167ffffffffffffffff811115612aca57612aca614588565b6040519080825280601f01601f191660200182016040528015612af4576020820181803683370190505b5090505b841561201357612b09600183614451565b9150612b16600a86614532565b612b21906030614260565b60f81b818381518110612b3657612b36614572565b60200101907effffffffffffffffffffffffffffffffffffffffffffffffffffffffffffff1916908160001a905350612b70600a86614300565b9450612af8565b805160609080612b97575050604080516020810190915260008152919050565b60006003612ba6836002614260565b612bb09190614300565b612bbb9060046143e8565b90506000612bca826020614260565b67ffffffffffffffff811115612be257612be2614588565b6040519080825280601f01601f191660200182016040528015612c0c576020820181803683370190505b5090506000604051806060016040528060408152602001614622604091399050600181016020830160005b86811015612c98576003818a01810151603f601282901c8116860151600c83901c8216870151600684901c831688015192909316870151600891821b60ff94851601821b92841692909201901b91160160e01b835260049092019101612c37565b506003860660018114612cb25760028114612cfc57612d24565b7f3d3d0000000000000000000000000000000000000000000000000000000000007ffffffffffffffffffffffffffffffffffffffffffffffffffffffffffffffffe830152612d24565b7f3d000000000000000000000000000000000000000000000000000000000000006000198301525b505050918152949350505050565b61096d84848484604051602401612d4c949392919061401a565b60408051601f198184030181529190526020810180517bffffffffffffffffffffffffffffffffffffffffffffffffffffffff167fde68f20a00000000000000000000000000000000000000000000000000000000179052613339565b61084f838383604051602401612dc193929190614135565b60408051601f198184030181529190526020810180517bffffffffffffffffffffffffffffffffffffffffffffffffffffffff167fa3f5c73900000000000000000000000000000000000000000000000000000000179052613339565b600a546000906001600160a01b03163314612e7b5760405162461bcd60e51b815260206004820181905260248201527f4f776e61626c653a2063616c6c6572206973206e6f7420746865206f776e657260448201526064016106fd565b6001600160a01b0383166000908152600f60205260409020546109c41415612f0b5760405162461bcd60e51b815260206004820152602b60248201527f5761697420666f7220796f7572206f74686572204d6f6e7320746f2066696e6960448201527f7368206669676874696e6700000000000000000000000000000000000000000060648201526084016106fd565b612f4a6040518060400160405280601481526020017f524e4720436f6e7472616374206164647265737300000000000000000000000081525030613108565b600c546040517f70a082310000000000000000000000000000000000000000000000000000000081523060048201527f00000000000000000000000000000000000000000000000000000000000000006001600160a01b0316906370a082319060240160206040518083038186803b158015612fc557600080fd5b505afa158015612fd9573d6000803e3d6000fd5b505050506040513d601f19601f82011682018060405250810190612ffd9190613b75565b101561304b5760405162461bcd60e51b815260206004820152601c60248201527f4e6f7420656e6f756768204c494e4b20696e20636f6e74726163742e0000000060448201526064016106fd565b613059600b54600c546135a8565b6000818152600d6020908152604080832080547fffffffffffffffffffffffffffffffffffffffffffffffffffffffff000000001663ffffffff8816179055600e8252808320805473ffffffffffffffffffffffffffffffffffffffff19166001600160a01b038916908117909155808452600f9092528083206109c49055519293509183917f923de4fc4aece24a78a9e4ca3009c571a742f81ac2c004a229224b0fd1883bdd91a392915050565b61148c828260405160240161311e929190613fef565b60408051601f198184030181529190526020810180517bffffffffffffffffffffffffffffffffffffffffffffffffffffffff167f319af33300000000000000000000000000000000000000000000000000000000179052613339565b6001600160a01b0382166131d15760405162461bcd60e51b815260206004820181905260248201527f4552433732313a206d696e7420746f20746865207a65726f206164647265737360448201526064016106fd565b6000818152600360205260409020546001600160a01b0316156132365760405162461bcd60e51b815260206004820152601c60248201527f4552433732313a20746f6b656e20616c7265616479206d696e7465640000000060448201526064016106fd565b6001600160a01b038216600090815260046020526040812080546001929061325f908490614260565b9091555050600081815260036020526040808220805473ffffffffffffffffffffffffffffffffffffffff19166001600160a01b03861690811790915590518392907fddf252ad1be2c89b69c2b068fc378daa952ba7f163c4a11628f55a4df523b3ef908290a45050565b61148c82826040516024016132e0929190614113565b60408051601f198184030181529190526020810180517bffffffffffffffffffffffffffffffffffffffffffffffffffffffff167f9710a9d0000000000000000000000000000000000000000000000000000000001790525b80516a636f6e736f6c652e6c6f67602083016000808483855afa5050505050565b60016009838154811061336f5761336f614572565b6000918252602082206003600490920201810180549092916133939185910b614217565b92506101000a81548163ffffffff021916908360030b63ffffffff16021790555080600983815481106133c8576133c8614572565b906000526020600020906004020160030160046101000a81548163ffffffff021916908363ffffffff1602179055505050565b60006001600160a01b0384163b1561359d576040517f150b7a020000000000000000000000000000000000000000000000000000000081526001600160a01b0385169063150b7a0290613458903390899088908890600401613f2b565b602060405180830381600087803b15801561347257600080fd5b505af19250505080156134a2575060408051601f3d908101601f1916820190925261349f91810190613a47565b60015b613552573d8080156134d0576040519150601f19603f3d011682016040523d82523d6000602084013e6134d5565b606091505b50805161354a5760405162461bcd60e51b815260206004820152603260248201527f4552433732313a207472616e7366657220746f206e6f6e20455243373231526560448201527f63656976657220696d706c656d656e746572000000000000000000000000000060648201526084016106fd565b805181602001fd5b7fffffffff00000000000000000000000000000000000000000000000000000000167f150b7a0200000000000000000000000000000000000000000000000000000000149050612013565b506001949350505050565b60007f00000000000000000000000000000000000000000000000000000000000000006001600160a01b0316634000aea07f000000000000000000000000000000000000000000000000000000000000000084866000604051602001613618929190918252602082015260400190565b6040516020818303038152906040526040518463ffffffff1660e01b815260040161364593929190613f67565b602060405180830381600087803b15801561365f57600080fd5b505af1158015613673573d6000803e3d6000fd5b505050506040513d601f19601f8201168201806040525081019061369791906139eb565b5060008381526020818152604080832054815180840188905280830185905230606082015260808082018390528351808303909101815260a0909101909252815191830191909120868452929091526136f1906001614260565b6000858152602081815260409182902092909255805180830187905280820184905281518082038301815260609091019091528051910120612013565b82805461373a906144dc565b90600052602060002090601f01602090048101928261375c57600085556137a2565b82601f1061377557805160ff19168380011785556137a2565b828001600101855582156137a2579182015b828111156137a2578251825591602001919060010190613787565b506137ae9291506137b2565b5090565b5b808211156137ae57600081556001016137b3565b600067ffffffffffffffff808411156137e2576137e2614588565b604051601f8501601f19908116603f0116810190828211818310171561380a5761380a614588565b8160405280935085815286868601111561382357600080fd5b858560208301376000602087830101525050509392505050565b600082601f83011261384e57600080fd5b61220d838335602085016137c7565b60006020828403121561386f57600080fd5b813561220d8161459e565b60006020828403121561388c57600080fd5b815161220d8161459e565b600080604083850312156138aa57600080fd5b82356138b58161459e565b915060208301356138c58161459e565b809150509250929050565b6000806000606084860312156138e557600080fd5b83356138f08161459e565b925060208401356139008161459e565b929592945050506040919091013590565b6000806000806080858703121561392757600080fd5b84356139328161459e565b935060208501356139428161459e565b925060408501359150606085013567ffffffffffffffff81111561396557600080fd5b8501601f8101871361397657600080fd5b613985878235602084016137c7565b91505092959194509250565b600080604083850312156139a457600080fd5b82356139af8161459e565b915060208301356138c5816145b3565b600080604083850312156139d257600080fd5b82356139dd8161459e565b946020939093013593505050565b6000602082840312156139fd57600080fd5b815161220d816145b3565b60008060408385031215613a1b57600080fd5b50508035926020909101359150565b600060208284031215613a3c57600080fd5b813561220d816145c1565b600060208284031215613a5957600080fd5b815161220d816145c1565b60008060408385031215613a7757600080fd5b823567ffffffffffffffff811115613a8e57600080fd5b613a9a8582860161383d565b92505060208301356138c58161459e565b60008060408385031215613abe57600080fd5b823567ffffffffffffffff80821115613ad657600080fd5b613ae28683870161383d565b93506020850135915080821115613af857600080fd5b50613b058582860161383d565b9150509250929050565b60008060408385031215613b2257600080fd5b823567ffffffffffffffff811115613b3957600080fd5b613b458582860161383d565b925050602083013560ff811681146138c557600080fd5b600060208284031215613b6e57600080fd5b5035919050565b600060208284031215613b8757600080fd5b5051919050565b60008151808452613ba68160208601602086016144b0565b601f01601f19169290920160200192915050565b60008151613bcc8185602086016144b0565b9290920192915050565b8054600090600181811c9080831680613bf057607f831692505b6020808410821415613c1257634e487b7160e01b600052602260045260246000fd5b818015613c265760018114613c3757613c64565b60ff19861689528489019650613c64565b60008881526020902060005b86811015613c5c5781548b820152908501908301613c43565b505084890196505b50505050505092915050565b7f7b226e616d65223a20220000000000000000000000000000000000000000000081526000613ca2600a83018a613bd6565b7f202d2d20494420233a200000000000000000000000000000000000000000000081528851613cd881600a840160208d016144b0565b7f222c20226465736372697074696f6e223a20225468697320697320616e204e46600a92909101918201527f542074686174206c6574732070656f706c6520706c617920746865205543334d602a8201527f6f6e2047616d65222c2022696d616765223a2022000000000000000000000000604a820152613d5c605e820189613bd6565b90507f222c202261747472696275746573223a205b207b202274726169745f7479706581527f223a2022444e41222c202276616c7565223a200000000000000000000000000060208201528651613dba816033840160208b016144b0565b613ed7613eae613ea8613e7f613e79613e2a613e246033888a01017f7d2c207b202274726169745f74797065223a20224c6576656c222c202276616c81527f7565223a20000000000000000000000000000000000000000000000000000000602082015260250190565b8d613bba565b7f7d2c207b202274726169745f74797065223a2022457870222c202276616c756581527f223a200000000000000000000000000000000000000000000000000000000000602082015260230190565b8a613bba565b7f2c20226d61785f76616c7565223a2000000000000000000000000000000000008152600f0190565b87613bba565b7f7d5d7d0000000000000000000000000000000000000000000000000000000000815260030190565b9b9a5050505050505050505050565b7f646174613a6170706c69636174696f6e2f6a736f6e3b6261736536342c000000815260008251613f1e81601d8501602087016144b0565b91909101601d0192915050565b60006001600160a01b03808716835280861660208401525083604083015260806060830152613f5d6080830184613b8e565b9695505050505050565b6001600160a01b0384168152826020820152606060408201526000613f8f6060830184613b8e565b95945050505050565b6020808252825182820181905260009190848201906040850190845b81811015613fd057835183529284019291840191600101613fb4565b50909695505050505050565b60208152600061220d6020830184613b8e565b6040815260006140026040830185613b8e565b90506001600160a01b03831660208301529392505050565b60808152600061402d6080830187613b8e565b828103602084015261403f8187613b8e565b905082810360408401526140538186613b8e565b905082810360608401526140678185613b8e565b979650505050505050565b6080815260006140856080830187613b8e565b82810360208401526140978187613b8e565b905082810360408401526140ab8186613b8e565b91505082606083015295945050505050565b60c0815260006140d060c0830189613b8e565b82810360208401526140e28189613b8e565b9150508560408301528460030b606083015263ffffffff8416608083015282151560a0830152979650505050505050565b6040815260006141266040830185613b8e565b90508260208301529392505050565b6060815260006141486060830186613b8e565b8460208401528281036040840152613f5d8185613b8e565b6040815260006141736040830185613b8e565b905060ff831660208301529392505050565b602081526000825160c060208401526141a160e0840182613b8e565b90506020840151601f198483030160408501526141be8282613b8e565b91505060408401516060840152606084015160030b608084015263ffffffff60808501511660a084015260a0840151151560c08401528091505092915050565b8281526040602082015260006120136040830184613b8e565b60008160030b8360030b6000821282637fffffff0382138115161561423e5761423e614546565b82637fffffff1903821281161561425757614257614546565b50019392505050565b6000821982111561427357614273614546565b500190565b600063ffffffff80831681851680830382111561429757614297614546565b01949350505050565b600060ff821660ff84168060ff038211156142bd576142bd614546565b019392505050565b60008160030b8360030b806142dc576142dc61455c565b6000198114637fffffff19831416156142f7576142f7614546565b90059392505050565b60008261430f5761430f61455c565b500490565b600063ffffffff8084168061432b5761432b61455c565b92169190910492915050565b600060ff83168061434a5761434a61455c565b8060ff84160491505092915050565b60008160030b8360030b637fffffff60008213600084138383048511828216161561438657614386614546565b637fffffff1960008512868205861281841616156143a6576143a6614546565b600087129250858205871284841616156143c2576143c2614546565b858505871281841616156143d8576143d8614546565b5050509290910295945050505050565b600081600019048311821515161561440257614402614546565b500290565b60008160030b8360030b6000811281637fffffff190183128115161561442f5761442f614546565b81637fffffff01831381161561444757614447614546565b5090039392505050565b60008282101561446357614463614546565b500390565b600063ffffffff8381169083168181101561448557614485614546565b039392505050565b600060ff821660ff8416808210156144a7576144a7614546565b90039392505050565b60005b838110156144cb5781810151838201526020016144b3565b8381111561096d5750506000910152565b600181811c908216806144f057607f821691505b6020821081141561451157634e487b7160e01b600052602260045260246000fd5b50919050565b600060001982141561452b5761452b614546565b5060010190565b6000826145415761454161455c565b500690565b634e487b7160e01b600052601160045260246000fd5b634e487b7160e01b600052601260045260246000fd5b634e487b7160e01b600052603260045260246000fd5b634e487b7160e01b600052604160045260246000fd5b6001600160a01b0381168114611d2157600080fd5b8015158114611d2157600080fd5b7fffffffff0000000000000000000000000000000000000000000000000000000081168114611d2157600080fdfe4d696e746564206e6577205543334d6f6e2077697468206e616d652025732c20696d61676520257320616e642049442025734142434445464748494a4b4c4d4e4f505152535455565758595a6162636465666768696a6b6c6d6e6f707172737475767778797a303132333435363738392b2f516d5547416742357933517169485145444d58364443776373656d623839364c73755942786d5134716251726a71a26469706673582212207f4e1cc6b8815d0638777814e516b65cf031422b53ebfc58c92a775967118dcb64736f6c63430008070033",
  "linkReferences": {},
  "deployedLinkReferences": {}
}