{
  "_format": "hh-sol-artifact-1",
  "contractName": "PVEArena",
  "sourceName": "contracts/PVEArena.sol",
  "abi": [
    {
      "inputs": [],
      "stateMutability": "nonpayable",
      "type": "constructor"
    },
    {
      "anonymous": false,
      "inputs": [
        {
          "indexed": true,
          "internalType": "address",
          "name": "owner",
          "type": "address"
        },
        {
          "indexed": true,
          "internalType": "address",
          "name": "approved",
          "type": "address"
        },
        {
          "indexed": true,
          "internalType": "uint256",
          "name": "tokenId",
          "type": "uint256"
        }
      ],
      "name": "Approval",
      "type": "event"
    },
    {
      "anonymous": false,
      "inputs": [
        {
          "indexed": true,
          "internalType": "address",
          "name": "owner",
          "type": "address"
        },
        {
          "indexed": true,
          "internalType": "address",
          "name": "operator",
          "type": "address"
        },
        {
          "indexed": false,
          "internalType": "bool",
          "name": "approved",
          "type": "bool"
        }
      ],
      "name": "ApprovalForAll",
      "type": "event"
    },
    {
      "anonymous": false,
      "inputs": [
        {
          "indexed": true,
          "internalType": "bytes32",
          "name": "requestId",
          "type": "bytes32"
        },
        {
          "indexed": true,
          "internalType": "address",
          "name": "roller",
          "type": "address"
        }
      ],
      "name": "DiceRolled",
      "type": "event"
    },
    {
      "anonymous": false,
      "inputs": [
        {
          "indexed": false,
          "internalType": "address",
          "name": "sender",
          "type": "address"
        },
        {
          "indexed": false,
          "internalType": "uint256",
          "name": "tokenId",
          "type": "uint256"
        }
      ],
      "name": "NFTMinted",
      "type": "event"
    },
    {
      "anonymous": false,
      "inputs": [
        {
          "indexed": true,
          "internalType": "address",
          "name": "previousOwner",
          "type": "address"
        },
        {
          "indexed": true,
          "internalType": "address",
          "name": "newOwner",
          "type": "address"
        }
      ],
      "name": "OwnershipTransferred",
      "type": "event"
    },
    {
      "anonymous": false,
      "inputs": [
        {
          "indexed": true,
          "internalType": "bytes32",
          "name": "requestId",
          "type": "bytes32"
        },
        {
          "indexed": true,
          "internalType": "uint256",
          "name": "result",
          "type": "uint256"
        }
      ],
      "name": "ResultReceived",
      "type": "event"
    },
    {
      "anonymous": false,
      "inputs": [
        {
          "indexed": true,
          "internalType": "address",
          "name": "from",
          "type": "address"
        },
        {
          "indexed": true,
          "internalType": "address",
          "name": "to",
          "type": "address"
        },
        {
          "indexed": true,
          "internalType": "uint256",
          "name": "tokenId",
          "type": "uint256"
        }
      ],
      "name": "Transfer",
      "type": "event"
    },
    {
      "anonymous": false,
      "inputs": [
        {
          "indexed": false,
          "internalType": "uint256",
          "name": "monId",
          "type": "uint256"
        },
        {
          "indexed": false,
          "internalType": "uint256",
          "name": "enemyId",
          "type": "uint256"
        }
      ],
      "name": "battleLost",
      "type": "event"
    },
    {
      "anonymous": false,
      "inputs": [
        {
          "indexed": false,
          "internalType": "uint256",
          "name": "monId",
          "type": "uint256"
        },
        {
          "indexed": false,
          "internalType": "uint256",
          "name": "enemyId",
          "type": "uint256"
        }
      ],
      "name": "battleWon",
      "type": "event"
    },
    {
      "anonymous": false,
      "inputs": [
        {
          "indexed": false,
          "internalType": "uint256",
          "name": "id",
          "type": "uint256"
        },
        {
          "indexed": false,
          "internalType": "string",
          "name": "name",
          "type": "string"
        }
      ],
      "name": "createdEnemy",
      "type": "event"
    },
    {
      "inputs": [
        {
          "internalType": "address",
          "name": "to",
          "type": "address"
        },
        {
          "internalType": "uint256",
          "name": "tokenId",
          "type": "uint256"
        }
      ],
      "name": "approve",
      "outputs": [],
      "stateMutability": "nonpayable",
      "type": "function"
    },
    {
      "inputs": [
        {
          "internalType": "address",
          "name": "owner",
          "type": "address"
        }
      ],
      "name": "balanceOf",
      "outputs": [
        {
          "internalType": "uint256",
          "name": "",
          "type": "uint256"
        }
      ],
      "stateMutability": "view",
      "type": "function"
    },
    {
      "inputs": [
        {
          "internalType": "string",
          "name": "_name",
          "type": "string"
        },
        {
          "internalType": "string",
          "name": "_img",
          "type": "string"
        },
        {
          "internalType": "uint8",
          "name": "_chance",
          "type": "uint8"
        }
      ],
      "name": "createEnemy",
      "outputs": [],
      "stateMutability": "nonpayable",
      "type": "function"
    },
    {
      "inputs": [
        {
          "internalType": "string",
          "name": "_name",
          "type": "string"
        },
        {
          "internalType": "string",
          "name": "_img",
          "type": "string"
        }
      ],
      "name": "createFirstUC3Mon",
      "outputs": [],
      "stateMutability": "nonpayable",
      "type": "function"
    },
    {
      "inputs": [
        {
          "internalType": "string",
          "name": "_name",
          "type": "string"
        },
        {
          "internalType": "string",
          "name": "_img",
          "type": "string"
        }
      ],
      "name": "createUC3Mon",
      "outputs": [],
      "stateMutability": "nonpayable",
      "type": "function"
    },
    {
      "inputs": [
        {
          "internalType": "string",
          "name": "_name",
          "type": "string"
        },
        {
          "internalType": "string",
          "name": "_img",
          "type": "string"
        },
        {
          "internalType": "address",
          "name": "_owner",
          "type": "address"
        }
      ],
      "name": "createUC3MonToAddress",
      "outputs": [],
      "stateMutability": "nonpayable",
      "type": "function"
    },
    {
      "inputs": [
        {
          "internalType": "uint256",
          "name": "",
          "type": "uint256"
        }
      ],
      "name": "enemies",
      "outputs": [
        {
          "internalType": "string",
          "name": "name",
          "type": "string"
        },
        {
          "internalType": "string",
          "name": "img",
          "type": "string"
        },
        {
          "internalType": "uint8",
          "name": "chance",
          "type": "uint8"
        },
        {
          "internalType": "bool",
          "name": "isAlive",
          "type": "bool"
        }
      ],
      "stateMutability": "view",
      "type": "function"
    },
    {
      "inputs": [
        {
          "internalType": "uint256",
          "name": "_monId",
          "type": "uint256"
        },
        {
          "internalType": "uint256",
          "name": "_enemyId",
          "type": "uint256"
        }
      ],
      "name": "fight",
      "outputs": [],
      "stateMutability": "nonpayable",
      "type": "function"
    },
    {
      "inputs": [
        {
          "internalType": "uint256",
          "name": "_monId",
          "type": "uint256"
        },
        {
          "internalType": "uint256",
          "name": "_enemyId",
          "type": "uint256"
        }
      ],
      "name": "fightResult",
      "outputs": [],
      "stateMutability": "nonpayable",
      "type": "function"
    },
    {
      "inputs": [
        {
          "internalType": "uint256",
          "name": "_monId",
          "type": "uint256"
        }
      ],
      "name": "forceEndFight",
      "outputs": [],
      "stateMutability": "nonpayable",
      "type": "function"
    },
    {
      "inputs": [
        {
          "internalType": "uint256",
          "name": "tokenId",
          "type": "uint256"
        }
      ],
      "name": "getApproved",
      "outputs": [
        {
          "internalType": "address",
          "name": "",
          "type": "address"
        }
      ],
      "stateMutability": "view",
      "type": "function"
    },
    {
      "inputs": [
        {
          "internalType": "uint256",
          "name": "_enemyId",
          "type": "uint256"
        }
      ],
      "name": "getEnemyInfo",
      "outputs": [
        {
          "components": [
            {
              "internalType": "string",
              "name": "name",
              "type": "string"
            },
            {
              "internalType": "string",
              "name": "img",
              "type": "string"
            },
            {
              "internalType": "uint8",
              "name": "chance",
              "type": "uint8"
            },
            {
              "internalType": "bool",
              "name": "isAlive",
              "type": "bool"
            }
          ],
          "internalType": "struct PVEArena.enemy",
          "name": "",
          "type": "tuple"
        }
      ],
      "stateMutability": "view",
      "type": "function"
    },
    {
      "inputs": [],
      "name": "getExistingEnemiesIds",
      "outputs": [
        {
          "internalType": "uint256[]",
          "name": "",
          "type": "uint256[]"
        }
      ],
      "stateMutability": "view",
      "type": "function"
    },
    {
      "inputs": [
        {
          "internalType": "uint256",
          "name": "_id",
          "type": "uint256"
        }
      ],
      "name": "getMonInfo",
      "outputs": [
        {
          "components": [
            {
              "internalType": "string",
              "name": "name",
              "type": "string"
            },
            {
              "internalType": "string",
              "name": "img",
              "type": "string"
            },
            {
              "internalType": "int32",
              "name": "level",
              "type": "int32"
            },
            {
              "internalType": "uint32",
              "name": "exp",
              "type": "uint32"
            },
            {
              "internalType": "bool",
              "name": "isFighting",
              "type": "bool"
            }
          ],
          "internalType": "struct NFT.UC3Mon",
          "name": "",
          "type": "tuple"
        }
      ],
      "stateMutability": "view",
      "type": "function"
    },
    {
      "inputs": [],
      "name": "getOwnedMons",
      "outputs": [
        {
          "internalType": "uint256[]",
          "name": "",
          "type": "uint256[]"
        }
      ],
      "stateMutability": "view",
      "type": "function"
    },
    {
      "inputs": [
        {
          "internalType": "address",
          "name": "_owner",
          "type": "address"
        }
      ],
      "name": "getOwnedMonsByAddress",
      "outputs": [
        {
          "internalType": "uint256[]",
          "name": "",
          "type": "uint256[]"
        }
      ],
      "stateMutability": "view",
      "type": "function"
    },
    {
      "inputs": [
        {
          "internalType": "address",
          "name": "_player",
          "type": "address"
        }
      ],
      "name": "getRolledNumber",
      "outputs": [
        {
          "internalType": "uint256",
          "name": "result",
          "type": "uint256"
        }
      ],
      "stateMutability": "view",
      "type": "function"
    },
    {
      "inputs": [
        {
          "internalType": "address",
          "name": "_contract",
          "type": "address"
        }
      ],
      "name": "importUC3MToken",
      "outputs": [],
      "stateMutability": "nonpayable",
      "type": "function"
    },
    {
      "inputs": [
        {
          "internalType": "address",
          "name": "owner",
          "type": "address"
        },
        {
          "internalType": "address",
          "name": "operator",
          "type": "address"
        }
      ],
      "name": "isApprovedForAll",
      "outputs": [
        {
          "internalType": "bool",
          "name": "",
          "type": "bool"
        }
      ],
      "stateMutability": "view",
      "type": "function"
    },
    {
      "inputs": [
        {
          "internalType": "uint256",
          "name": "_enemyId",
          "type": "uint256"
        }
      ],
      "name": "killEnemy",
      "outputs": [],
      "stateMutability": "nonpayable",
      "type": "function"
    },
    {
      "inputs": [],
      "name": "name",
      "outputs": [
        {
          "internalType": "string",
          "name": "",
          "type": "string"
        }
      ],
      "stateMutability": "view",
      "type": "function"
    },
    {
      "inputs": [],
      "name": "numAliveEnemies",
      "outputs": [
        {
          "internalType": "uint256",
          "name": "",
          "type": "uint256"
        }
      ],
      "stateMutability": "view",
      "type": "function"
    },
    {
      "inputs": [],
      "name": "owner",
      "outputs": [
        {
          "internalType": "address",
          "name": "",
          "type": "address"
        }
      ],
      "stateMutability": "view",
      "type": "function"
    },
    {
      "inputs": [
        {
          "internalType": "uint256",
          "name": "tokenId",
          "type": "uint256"
        }
      ],
      "name": "ownerOf",
      "outputs": [
        {
          "internalType": "address",
          "name": "",
          "type": "address"
        }
      ],
      "stateMutability": "view",
      "type": "function"
    },
    {
      "inputs": [
        {
          "internalType": "bytes32",
          "name": "requestId",
          "type": "bytes32"
        },
        {
          "internalType": "uint256",
          "name": "randomness",
          "type": "uint256"
        }
      ],
      "name": "rawFulfillRandomness",
      "outputs": [],
      "stateMutability": "nonpayable",
      "type": "function"
    },
    {
      "inputs": [],
      "name": "renounceOwnership",
      "outputs": [],
      "stateMutability": "nonpayable",
      "type": "function"
    },
    {
      "inputs": [
        {
          "internalType": "address",
          "name": "from",
          "type": "address"
        },
        {
          "internalType": "address",
          "name": "to",
          "type": "address"
        },
        {
          "internalType": "uint256",
          "name": "tokenId",
          "type": "uint256"
        }
      ],
      "name": "safeTransferFrom",
      "outputs": [],
      "stateMutability": "nonpayable",
      "type": "function"
    },
    {
      "inputs": [
        {
          "internalType": "address",
          "name": "from",
          "type": "address"
        },
        {
          "internalType": "address",
          "name": "to",
          "type": "address"
        },
        {
          "internalType": "uint256",
          "name": "tokenId",
          "type": "uint256"
        },
        {
          "internalType": "bytes",
          "name": "_data",
          "type": "bytes"
        }
      ],
      "name": "safeTransferFrom",
      "outputs": [],
      "stateMutability": "nonpayable",
      "type": "function"
    },
    {
      "inputs": [
        {
          "internalType": "address",
          "name": "operator",
          "type": "address"
        },
        {
          "internalType": "bool",
          "name": "approved",
          "type": "bool"
        }
      ],
      "name": "setApprovalForAll",
      "outputs": [],
      "stateMutability": "nonpayable",
      "type": "function"
    },
    {
      "inputs": [
        {
          "internalType": "bytes4",
          "name": "interfaceId",
          "type": "bytes4"
        }
      ],
      "name": "supportsInterface",
      "outputs": [
        {
          "internalType": "bool",
          "name": "",
          "type": "bool"
        }
      ],
      "stateMutability": "view",
      "type": "function"
    },
    {
      "inputs": [],
      "name": "symbol",
      "outputs": [
        {
          "internalType": "string",
          "name": "",
          "type": "string"
        }
      ],
      "stateMutability": "view",
      "type": "function"
    },
    {
      "inputs": [
        {
          "internalType": "uint256",
          "name": "_tokenId",
          "type": "uint256"
        }
      ],
      "name": "tokenURI",
      "outputs": [
        {
          "internalType": "string",
          "name": "",
          "type": "string"
        }
      ],
      "stateMutability": "view",
      "type": "function"
    },
    {
      "inputs": [
        {
          "internalType": "address",
          "name": "from",
          "type": "address"
        },
        {
          "internalType": "address",
          "name": "to",
          "type": "address"
        },
        {
          "internalType": "uint256",
          "name": "tokenId",
          "type": "uint256"
        }
      ],
      "name": "transferFrom",
      "outputs": [],
      "stateMutability": "nonpayable",
      "type": "function"
    },
    {
      "inputs": [
        {
          "internalType": "address",
          "name": "newOwner",
          "type": "address"
        }
      ],
      "name": "transferOwnership",
      "outputs": [],
      "stateMutability": "nonpayable",
      "type": "function"
    },
    {
      "inputs": [],
      "name": "uc3mToken",
      "outputs": [
        {
          "internalType": "contract UC3MCoin",
          "name": "",
          "type": "address"
        }
      ],
      "stateMutability": "view",
      "type": "function"
    },
    {
      "inputs": [
        {
          "internalType": "uint256",
          "name": "",
          "type": "uint256"
        }
      ],
      "name": "uc3mons",
      "outputs": [
        {
          "internalType": "string",
          "name": "name",
          "type": "string"
        },
        {
          "internalType": "string",
          "name": "img",
          "type": "string"
        },
        {
          "internalType": "int32",
          "name": "level",
          "type": "int32"
        },
        {
          "internalType": "uint32",
          "name": "exp",
          "type": "uint32"
        },
        {
          "internalType": "bool",
          "name": "isFighting",
          "type": "bool"
        }
      ],
      "stateMutability": "view",
      "type": "function"
    }
  ],
  "bytecode": "0x60c0604052600f80546001600160a01b031990811673b3dccb4cf7a26f6cf6b120cf5a73875b7bbc655b17909155601080549091167301be23585060835e02b77ef475b0cc51aa1e07091790557f2ed0feb3e7fd2022120aa84fab1945545a9f2ffc9076fd6156fa96eaff4c131160115567016345785d8a00006012553480156200008957600080fd5b50600f5460105460115460125460408051808201825260068152652aa199a6b7b760d11b602080830191825283518085019094526004845263784fc8df60e11b908401526001600160601b0319606088811b821660a05287901b1660805281516001600160a01b039788169796909616959192916200010b91600191620001a6565b50805162000121906002906020840190620001a6565b5050506200013e620001386200015060201b60201c565b62000154565b600991909155600a5550620002899050565b3390565b600880546001600160a01b038381166001600160a01b0319831681179093556040519116919082907f8be0079c531659141344cd1fd0a4f28419497f9722a3daafe3b4186f6b6457e090600090a35050565b828054620001b4906200024c565b90600052602060002090601f016020900481019282620001d8576000855562000223565b82601f10620001f357805160ff191683800117855562000223565b8280016001018555821562000223579182015b828111156200022357825182559160200191906001019062000206565b506200023192915062000235565b5090565b5b8082111562000231576000815560010162000236565b600181811c908216806200026157607f821691505b602082108114156200028357634e487b7160e01b600052602260045260246000fd5b50919050565b60805160601c60a05160601c614add620002c36000396000818161167b01526139bc01526000818161335d015261398d0152614add6000f3fe608060405234801561001057600080fd5b506004361061025c5760003560e01c8063715018a611610145578063b4709f23116100bd578063ca39e5ef1161008c578063e985e9c511610071578063e985e9c514610528578063f2fde38b14610564578063f78f2c221461057757600080fd5b8063ca39e5ef14610502578063e062442f1461051557600080fd5b8063b4709f23146104a0578063b88d4fde146104b3578063c87b56dd146104c6578063c9669179146104d957600080fd5b806394985ddd11610114578063a22cb465116100f9578063a22cb46514610472578063a9ffc3a414610485578063afd2618a1461048d57600080fd5b806394985ddd1461045757806395d89b411461046a57600080fd5b8063715018a6146104185780637da3cd761461042057806387f924d9146104335780638da5cb5b1461044657600080fd5b806343bb5a15116101d857806358636b00116101a75780635cb9d5771161018c5780635cb9d577146103d25780636352211e146103f257806370a082311461040557600080fd5b806358636b001461039f5780635c21d16e146103b257600080fd5b806343bb5a151461033d57806343c7db3b14610354578063531fb09814610367578063543419801461037c57600080fd5b8063095ea7b31161022f578063285a0cee11610214578063285a0cee146103045780633ffb11fd1461031757806342842e0e1461032a57600080fd5b8063095ea7b3146102de57806323b872dd146102f157600080fd5b806301ffc9a71461026157806305e5a97b1461028957806306fdde031461029e578063081812fc146102b3575b600080fd5b61027461026f366004613e07565b61059b565b60405190151581526020015b60405180910390f35b61029c610297366004613f97565b610680565b005b6102a66106ed565b60405161028091906143b7565b6102c66102c1366004613f97565b61077f565b6040516001600160a01b039091168152602001610280565b61029c6102ec366004613d9e565b610825565b61029c6102ff366004613caf565b610957565b61029c610312366004613ea5565b6109de565b61029c610325366004613de5565b610a45565b61029c610338366004613caf565b610e3f565b61034660145481565b604051908152602001610280565b61029c610362366004613e41565b610e5a565b61036f610ec5565b6040516102809190614373565b61038f61038a366004613f97565b610f9b565b60405161028094939291906144e6565b61029c6103ad366004613f97565b6110f1565b6103c56103c0366004613f97565b61117a565b60405161028091906145e3565b6103e56103e0366004613f97565b611313565b6040516102809190614574565b6102c6610400366004613f97565b6114d2565b610346610413366004613c61565b61155d565b61029c6115f7565b600e546102c6906001600160a01b031681565b61029c610441366004613e41565b61165d565b6008546001600160a01b03166102c6565b61029c610465366004613de5565b611670565b6102a66116f2565b61029c610480366004613d67565b611701565b61036f61170c565b61029c61049b366004613f19565b6117c2565b61036f6104ae366004613c61565b6119cf565b61029c6104c1366004613ceb565b611a97565b6102a66104d4366004613f97565b611b25565b6103466104e7366004613c61565b6001600160a01b03166000908152600d602052604090205490565b61029c610510366004613de5565b611c51565b61029c610523366004613c61565b612037565b610274610536366004613c7c565b6001600160a01b03918216600090815260066020908152604080832093909416825291909152205460ff1690565b61029c610572366004613c61565b6120c0565b61058a610585366004613f97565b61219f565b6040516102809594939291906143f5565b60007fffffffff0000000000000000000000000000000000000000000000000000000082167f80ac58cd00000000000000000000000000000000000000000000000000000000148061062e57507fffffffff0000000000000000000000000000000000000000000000000000000082167f5b5e139f00000000000000000000000000000000000000000000000000000000145b8061067a57507f01ffc9a7000000000000000000000000000000000000000000000000000000007fffffffff000000000000000000000000000000000000000000000000000000008316145b92915050565b6008546001600160a01b031633146106df5760405162461bcd60e51b815260206004820181905260248201527f4f776e61626c653a2063616c6c6572206973206e6f7420746865206f776e657260448201526064015b60405180910390fd5b6106ea81600061230e565b50565b6060600180546106fc90614937565b80601f016020809104026020016040519081016040528092919081815260200182805461072890614937565b80156107755780601f1061074a57610100808354040283529160200191610775565b820191906000526020600020905b81548152906001019060200180831161075857829003601f168201915b5050505050905090565b6000818152600360205260408120546001600160a01b03166108095760405162461bcd60e51b815260206004820152602c60248201527f4552433732313a20617070726f76656420717565727920666f72206e6f6e657860448201527f697374656e7420746f6b656e000000000000000000000000000000000000000060648201526084016106d6565b506000908152600560205260409020546001600160a01b031690565b6000610830826114d2565b9050806001600160a01b0316836001600160a01b031614156108ba5760405162461bcd60e51b815260206004820152602160248201527f4552433732313a20617070726f76616c20746f2063757272656e74206f776e6560448201527f720000000000000000000000000000000000000000000000000000000000000060648201526084016106d6565b336001600160a01b03821614806108d657506108d68133610536565b6109485760405162461bcd60e51b815260206004820152603860248201527f4552433732313a20617070726f76652063616c6c6572206973206e6f74206f7760448201527f6e6572206e6f7220617070726f76656420666f7220616c6c000000000000000060648201526084016106d6565b610952838361234e565b505050565b61096133826123c9565b6109d35760405162461bcd60e51b815260206004820152603160248201527f4552433732313a207472616e736665722063616c6c6572206973206e6f74206f60448201527f776e6572206e6f7220617070726f76656400000000000000000000000000000060648201526084016106d6565b6109528383836124d1565b6008546001600160a01b03163314610a385760405162461bcd60e51b815260206004820181905260248201527f4f776e61626c653a2063616c6c6572206973206e6f7420746865206f776e657260448201526064016106d6565b61095283836001846126ab565b610a4e826114d2565b6001600160a01b0381166000908152600d6020526040902054610ad95760405162461bcd60e51b815260206004820152602160248201527f506c6179657220686173206e6f7420656e676167656420696e20626174746c6560448201527f210000000000000000000000000000000000000000000000000000000000000060648201526084016106d6565b6001600160a01b0381166000908152600d60205260409020546109c41415610b435760405162461bcd60e51b815260206004820152601360248201527f426174746c6520696e2070726f6772657373210000000000000000000000000060448201526064016106d6565b6000610b4e846114d2565b6001600160a01b038116600090815260156020526040902054909150831415610bdf5760405162461bcd60e51b815260206004820152602d60248201527f466967687420616c7265616479207265736f6c7665642c20726577617264206160448201527f6c7265616479206561726e65640000000000000000000000000000000000000060648201526084016106d6565b6001600160a01b0381166000908152601560205260408120849055610c0590859061230e565b600060138481548110610c1a57610c1a6149cd565b6000918252602082206002600390920201015460ff169150610c3d8260646148d1565b9050610c728360138781548110610c5657610c566149cd565b600091825260209091206002600390920201015460ff16612893565b15610da857610cb56040518060400160405280600c81526020017f506c617965722077696e7321000000000000000000000000000000000000000081525061292d565b60006005610cc684830b606461484b565b60078981548110610cd957610cd96149cd565b6000918252602090912060039182020160020154610cf9910b606461479d565b610d03919061479d565b610d0d9190614709565b60078881548110610d2057610d206149cd565b6000918252602090912060039182020160020154610d40910b606461479d565b610d4a919061465b565b63ffffffff169050610d5c848261299e565b610d69878360ff16612a19565b60408051888152602081018890527f4ba232e049a3ef74b7e308690aee261f239c3ab3c2c8d8ec6ea2cf48253543ab910160405180910390a150610e37565b610de66040518060400160405280600d81526020017f4d6f6e737465722077696e73210000000000000000000000000000000000000081525061292d565b610dfd86610df5600a8461477b565b60ff16612a19565b60408051878152602081018790527f61f00e4fb2b7c1c6e9252ade68e8284388b47e43fe3fe709c3a6a48c2b96478d910160405180910390a15b505050505050565b61095283838360405180602001604052806000815250611a97565b6008546001600160a01b03163314610eb45760405162461bcd60e51b815260206004820181905260248201527f4f776e61626c653a2063616c6c6572206973206e6f7420746865206f776e657260448201526064016106d6565b610ec182826001336126ab565b5050565b6060600060145467ffffffffffffffff811115610ee457610ee46149e3565b604051908082528060200260200182016040528015610f0d578160200160208202803683370190505b5090506000805b601354811015610f935760138181548110610f3157610f316149cd565b906000526020600020906003020160020160019054906101000a900460ff1615610f815780838381518110610f6857610f686149cd565b602090810291909101015281610f7d81614972565b9250505b80610f8b81614972565b915050610f14565b509092915050565b60138181548110610fab57600080fd5b9060005260206000209060030201600091509050806000018054610fce90614937565b80601f0160208091040260200160405190810160405280929190818152602001828054610ffa90614937565b80156110475780601f1061101c57610100808354040283529160200191611047565b820191906000526020600020905b81548152906001019060200180831161102a57829003601f168201915b50505050509080600101805461105c90614937565b80601f016020809104026020016040519081016040528092919081815260200182805461108890614937565b80156110d55780601f106110aa576101008083540402835291602001916110d5565b820191906000526020600020905b8154815290600101906020018083116110b857829003601f168201915b5050506002909301549192505060ff8082169161010090041684565b6008546001600160a01b0316331461114b5760405162461bcd60e51b815260206004820181905260248201527f4f776e61626c653a2063616c6c6572206973206e6f7420746865206f776e657260448201526064016106d6565b6013818154811061115e5761115e6149cd565b506000908152601480549161117283614920565b919050555050565b604080516080810182526060808252602082018190526000928201839052810191909152601382815481106111b1576111b16149cd565b90600052602060002090600302016040518060800160405290816000820180546111da90614937565b80601f016020809104026020016040519081016040528092919081815260200182805461120690614937565b80156112535780601f1061122857610100808354040283529160200191611253565b820191906000526020600020905b81548152906001019060200180831161123657829003601f168201915b5050505050815260200160018201805461126c90614937565b80601f016020809104026020016040519081016040528092919081815260200182805461129890614937565b80156112e55780601f106112ba576101008083540402835291602001916112e5565b820191906000526020600020905b8154815290600101906020018083116112c857829003601f168201915b50505091835250506002919091015460ff808216602084015261010090910416151560409091015292915050565b6040805160a08101825260608082526020820181905260009282018390528101829052608081019190915260078281548110611351576113516149cd565b90600052602060002090600302016040518060a001604052908160008201805461137a90614937565b80601f01602080910402602001604051908101604052809291908181526020018280546113a690614937565b80156113f35780601f106113c8576101008083540402835291602001916113f3565b820191906000526020600020905b8154815290600101906020018083116113d657829003601f168201915b5050505050815260200160018201805461140c90614937565b80601f016020809104026020016040519081016040528092919081815260200182805461143890614937565b80156114855780601f1061145a57610100808354040283529160200191611485565b820191906000526020600020905b81548152906001019060200180831161146857829003601f168201915b505050918352505060029190910154600381810b810b900b6020830152640100000000810463ffffffff16604083015268010000000000000000900460ff16151560609091015292915050565b6000818152600360205260408120546001600160a01b03168061067a5760405162461bcd60e51b815260206004820152602960248201527f4552433732313a206f776e657220717565727920666f72206e6f6e657869737460448201527f656e7420746f6b656e000000000000000000000000000000000000000000000060648201526084016106d6565b60006001600160a01b0382166115db5760405162461bcd60e51b815260206004820152602a60248201527f4552433732313a2062616c616e636520717565727920666f7220746865207a6560448201527f726f20616464726573730000000000000000000000000000000000000000000060648201526084016106d6565b506001600160a01b031660009081526004602052604090205490565b6008546001600160a01b031633146116515760405162461bcd60e51b815260206004820181905260248201527f4f776e61626c653a2063616c6c6572206973206e6f7420746865206f776e657260448201526064016106d6565b61165b6000612b73565b565b6116663361155d565b15610eb457600080fd5b336001600160a01b037f000000000000000000000000000000000000000000000000000000000000000016146116e85760405162461bcd60e51b815260206004820152601f60248201527f4f6e6c7920565246436f6f7264696e61746f722063616e2066756c66696c6c0060448201526064016106d6565b610ec18282612bd2565b6060600280546106fc90614937565b610ec1338383612cb5565b606060006117193361155d565b67ffffffffffffffff811115611731576117316149e3565b60405190808252806020026020018201604052801561175a578160200160208202803683370190505b5090506000805b600754811015610f935733611775826114d2565b6001600160a01b031614156117b05780838381518110611797576117976149cd565b6020908102919091010152816117ac81614972565b9250505b806117ba81614972565b915050611761565b6008546001600160a01b0316331461181c5760405162461bcd60e51b815260206004820181905260248201527f4f776e61626c653a2063616c6c6572206973206e6f7420746865206f776e657260448201526064016106d6565b60408051608081018252848152602080820185905260ff84169282019290925260016060820181905260138054918201815560005281518051929360039092027f66de8ffda797e3de9c05e8fc57b3bf0ec28a930d40b0d285d93c06501cf6a090019261188c9284920190613b0f565b5060208281015180516118a59260018501920190613b0f565b506040820151600290910180546060909301511515610100027fffffffffffffffffffffffffffffffffffffffffffffffffffffffffffff000090931660ff9092169190911791909117905560135460009061190390600190614895565b905061197b6040518060400160405280601781526020017f4372656174656420656e656d792077697468206e616d65000000000000000000815250856040518060400160405280600681526020017f616e64204944000000000000000000000000000000000000000000000000000081525084612d84565b6014805490600061198b83614972565b91905055507fcce27da5415e2a1b970ff97d07827ffc2f208330cdf38173baadf37ddd64926681856040516119c1929190614642565b60405180910390a150505050565b606060006119dc8361155d565b67ffffffffffffffff8111156119f4576119f46149e3565b604051908082528060200260200182016040528015611a1d578160200160208202803683370190505b5090506000805b600754811015611a8e57846001600160a01b0316611a41826114d2565b6001600160a01b03161415611a7c5780838381518110611a6357611a636149cd565b602090810291909101015281611a7881614972565b9250505b80611a8681614972565b915050611a24565b50909392505050565b611aa133836123c9565b611b135760405162461bcd60e51b815260206004820152603160248201527f4552433732313a207472616e736665722063616c6c6572206973206e6f74206f60448201527f776e6572206e6f7220617070726f76656400000000000000000000000000000060648201526084016106d6565b611b1f84848484612dfb565b50505050565b60606000611c2460078481548110611b3f57611b3f6149cd565b9060005260206000209060030201600001611b5985612e84565b60078681548110611b6c57611b6c6149cd565b9060005260206000209060030201600101611bb460078881548110611b9357611b936149cd565b6000918252602090912060039182020160020154900b63ffffffff16612e84565b611bf160078981548110611bca57611bca6149cd565b6000918252602090912060039091020160020154640100000000900463ffffffff16612e84565b611bfb6064612e84565b604051602001611c10969594939291906140ab565b604051602081830303815290604052612fb6565b9050600081604051602001611c3991906142c1565b60408051601f19818403018152919052949350505050565b60078281548110611c6457611c646149cd565b906000526020600020906003020160020160089054906101000a900460ff1615611cf65760405162461bcd60e51b815260206004820152602260248201527f5543334d6f6e20616c726561647920656e676167656420696e2061206669676860448201527f742100000000000000000000000000000000000000000000000000000000000060648201526084016106d6565b611d0182600161230e565b6000611d0c836114d2565b9050611edc6040518060400160405280600981526020017f46696768746572733a000000000000000000000000000000000000000000000081525060078581548110611d5a57611d5a6149cd565b90600052602060002090600302016000018054611d7690614937565b80601f0160208091040260200160405190810160405280929190818152602001828054611da290614937565b8015611def5780601f10611dc457610100808354040283529160200191611def565b820191906000526020600020905b815481529060010190602001808311611dd257829003601f168201915b50505050506040518060400160405280600281526020017f767300000000000000000000000000000000000000000000000000000000000081525060138681548110611e3d57611e3d6149cd565b90600052602060002090600302016000018054611e5990614937565b80601f0160208091040260200160405190810160405280929190818152602001828054611e8590614937565b8015611ed25780601f10611ea757610100808354040283529160200191611ed2565b820191906000526020600020905b815481529060010190602001808311611eb557829003601f168201915b5050505050613171565b336001600160a01b03821614611f5a5760405162461bcd60e51b815260206004820152602260248201527f46696768742063616c6c6572206d75737420626520746865204e4654206f776e60448201527f657200000000000000000000000000000000000000000000000000000000000060648201526084016106d6565b600060138381548110611f6f57611f6f6149cd565b906000526020600020906003020160020160009054906101000a900460ff1690506120086040518060400160405280601681526020017f46696768742120566963746f7279206368616e63653a000000000000000000008152508260ff166040518060400160405280600181526020017f25000000000000000000000000000000000000000000000000000000000000008152506131e8565b6001600160a01b0382166000908152601560205260409020600019905561203082606461325d565b5050505050565b6008546001600160a01b031633146120915760405162461bcd60e51b815260206004820181905260248201527f4f776e61626c653a2063616c6c6572206973206e6f7420746865206f776e657260448201526064016106d6565b600e805473ffffffffffffffffffffffffffffffffffffffff19166001600160a01b0392909216919091179055565b6008546001600160a01b0316331461211a5760405162461bcd60e51b815260206004820181905260248201527f4f776e61626c653a2063616c6c6572206973206e6f7420746865206f776e657260448201526064016106d6565b6001600160a01b0381166121965760405162461bcd60e51b815260206004820152602660248201527f4f776e61626c653a206e6577206f776e657220697320746865207a65726f206160448201527f646472657373000000000000000000000000000000000000000000000000000060648201526084016106d6565b6106ea81612b73565b600781815481106121af57600080fd5b90600052602060002090600302016000915090508060000180546121d290614937565b80601f01602080910402602001604051908101604052809291908181526020018280546121fe90614937565b801561224b5780601f106122205761010080835404028352916020019161224b565b820191906000526020600020905b81548152906001019060200180831161222e57829003601f168201915b50505050509080600101805461226090614937565b80601f016020809104026020016040519081016040528092919081815260200182805461228c90614937565b80156122d95780601f106122ae576101008083540402835291602001916122d9565b820191906000526020600020905b8154815290600101906020018083116122bc57829003601f168201915b50505060029093015491925050600381900b9063ffffffff6401000000008204169060ff680100000000000000009091041685565b8060078381548110612322576123226149cd565b906000526020600020906003020160020160086101000a81548160ff0219169083151502179055505050565b6000818152600560205260409020805473ffffffffffffffffffffffffffffffffffffffff19166001600160a01b0384169081179091558190612390826114d2565b6001600160a01b03167f8c5be1e5ebec7d5bd14f71427d1e84f3dd0314c0f7b2291e5b200ac8c7c3b92560405160405180910390a45050565b6000818152600360205260408120546001600160a01b03166124535760405162461bcd60e51b815260206004820152602c60248201527f4552433732313a206f70657261746f7220717565727920666f72206e6f6e657860448201527f697374656e7420746f6b656e000000000000000000000000000000000000000060648201526084016106d6565b600061245e836114d2565b9050806001600160a01b0316846001600160a01b031614806124a557506001600160a01b0380821660009081526006602090815260408083209388168352929052205460ff165b806124c95750836001600160a01b03166124be8461077f565b6001600160a01b0316145b949350505050565b826001600160a01b03166124e4826114d2565b6001600160a01b0316146125605760405162461bcd60e51b815260206004820152602560248201527f4552433732313a207472616e736665722066726f6d20696e636f72726563742060448201527f6f776e657200000000000000000000000000000000000000000000000000000060648201526084016106d6565b6001600160a01b0382166125db5760405162461bcd60e51b8152602060048201526024808201527f4552433732313a207472616e7366657220746f20746865207a65726f2061646460448201527f726573730000000000000000000000000000000000000000000000000000000060648201526084016106d6565b6125e660008261234e565b6001600160a01b038316600090815260046020526040812080546001929061260f908490614895565b90915550506001600160a01b038216600090815260046020526040812080546001929061263d9084906146a4565b9091555050600081815260036020526040808220805473ffffffffffffffffffffffffffffffffffffffff19166001600160a01b0386811691821790925591518493918716917fddf252ad1be2c89b69c2b068fc378daa952ba7f163c4a11628f55a4df523b3ef91a4505050565b6040805160a0810182528581526020808201869052600385810b9383019390935260006060830181905260808301819052600780546001810182559152825180519394919091027fa66cc928b5edb82af9bd49922954155ab7b0942694bea4ce44661d9a8736c68801926127229284920190613b0f565b50602082810151805161273b9260018501920190613b0f565b506040820151600290910180546060840151608090940151151568010000000000000000027fffffffffffffffffffffffffffffffffffffffffffffff00ffffffffffffffff63ffffffff958616640100000000027fffffffffffffffffffffffffffffffffffffffffffffffff000000000000000090931660039590950b9095169390931717929092161790556007546000906127db90600190614895565b905061281c6040518060400160405280601181526020017f4f776e6572206f66206e6577204e46543a000000000000000000000000000000815250336134ea565b612826828261355d565b61284a604051806060016040528060328152602001614a3660329139868684612d84565b604080516001600160a01b0384168152602081018390527f4cc0a9c4a99ddc700de1af2c9f916a7cbfdb71f14801ccff94061ad1ef8a8040910160405180910390a15050505050565b60006128f96040518060400160405280600e81526020017f4e756d62657220726f6c6c65643a000000000000000000000000000000000000815250600d6000866001600160a01b03166001600160a01b03168152602001908152602001600020546136ac565b6129048260016146e4565b6001600160a01b0384166000908152600d602052604090205460ff919091161015905092915050565b6106ea8160405160240161294191906143b7565b60408051601f198184030181529190526020810180517bffffffffffffffffffffffffffffffffffffffffffffffffffffffff167f41304fac0000000000000000000000000000000000000000000000000000000017905261371b565b600e546040517f40c10f190000000000000000000000000000000000000000000000000000000081526001600160a01b03848116600483015260248201849052909116906340c10f1990604401600060405180830381600087803b158015612a0557600080fd5b505af1158015610e37573d6000803e3d6000fd5b60078281548110612a2c57612a2c6149cd565b6000918252602090912060039182020160020154612a4b910b82614758565b60078381548110612a5e57612a5e6149cd565b906000526020600020906003020160020160048282829054906101000a900463ffffffff16612a8d91906146bc565b92506101000a81548163ffffffff021916908363ffffffff160217905550606460078381548110612ac057612ac06149cd565b6000918252602090912060039091020160020154640100000000900463ffffffff1610610ec157600060078381548110612afc57612afc6149cd565b6000918252602090912060039182020160020154612b1c910b600161465b565b606460078581548110612b3157612b316149cd565b906000526020600020906003020160020160049054906101000a900463ffffffff16612b5d91906148ac565b612b679190614758565b9050610952838261373c565b600880546001600160a01b0383811673ffffffffffffffffffffffffffffffffffffffff19831681179093556040519116919082907f8be0079c531659141344cd1fd0a4f28419497f9722a3daafe3b4186f6b6457e090600090a35050565b6000828152600b602052604090205463ffffffff16612c335760405162461bcd60e51b815260206004820152600c60248201527f4d6f64756c6f207a65726f21000000000000000000000000000000000000000060448201526064016106d6565b6000828152600b6020526040812054612c529063ffffffff168361498d565b612c5d9060016146a4565b6000848152600c60209081526040808320546001600160a01b03168352600d90915280822083905551919250829185917f7df4d4fa8fad4e2eef077ddf223fd42e761198da0fabe16edd222933c76f48b091a3505050565b816001600160a01b0316836001600160a01b03161415612d175760405162461bcd60e51b815260206004820152601960248201527f4552433732313a20617070726f766520746f2063616c6c65720000000000000060448201526064016106d6565b6001600160a01b03838116600081815260066020908152604080832094871680845294825291829020805460ff191686151590811790915591519182527f17307eab39ab6107e8899845ad3d59bd9653f200f220920489ca2b5937696c31910160405180910390a3505050565b611b1f84848484604051602401612d9e949392919061449b565b60408051601f198184030181529190526020810180517bffffffffffffffffffffffffffffffffffffffffffffffffffffffff167f9fd009f50000000000000000000000000000000000000000000000000000000017905261371b565b612e068484846124d1565b612e12848484846137dc565b611b1f5760405162461bcd60e51b815260206004820152603260248201527f4552433732313a207472616e7366657220746f206e6f6e20455243373231526560448201527f63656976657220696d706c656d656e746572000000000000000000000000000060648201526084016106d6565b606081612ec457505060408051808201909152600181527f3000000000000000000000000000000000000000000000000000000000000000602082015290565b8160005b8115612eee5780612ed881614972565b9150612ee79050600a83614744565b9150612ec8565b60008167ffffffffffffffff811115612f0957612f096149e3565b6040519080825280601f01601f191660200182016040528015612f33576020820181803683370190505b5090505b84156124c957612f48600183614895565b9150612f55600a8661498d565b612f609060306146a4565b60f81b818381518110612f7557612f756149cd565b60200101907effffffffffffffffffffffffffffffffffffffffffffffffffffffffffffff1916908160001a905350612faf600a86614744565b9450612f37565b805160609080612fd6575050604080516020810190915260008152919050565b60006003612fe58360026146a4565b612fef9190614744565b612ffa90600461482c565b905060006130098260206146a4565b67ffffffffffffffff811115613021576130216149e3565b6040519080825280601f01601f19166020018201604052801561304b576020820181803683370190505b5090506000604051806060016040528060408152602001614a68604091399050600181016020830160005b868110156130d7576003818a01810151603f601282901c8116860151600c83901c8216870151600684901c831688015192909316870151600891821b60ff94851601821b92841692909201901b91160160e01b835260049092019101613076565b5060038606600181146130f1576002811461313b57613163565b7f3d3d0000000000000000000000000000000000000000000000000000000000007ffffffffffffffffffffffffffffffffffffffffffffffffffffffffffffffffe830152613163565b7f3d000000000000000000000000000000000000000000000000000000000000006000198301525b505050918152949350505050565b611b1f8484848460405160240161318b9493929190614443565b60408051601f198184030181529190526020810180517bffffffffffffffffffffffffffffffffffffffffffffffffffffffff167fde68f20a0000000000000000000000000000000000000000000000000000000017905261371b565b61095283838360405160240161320093929190614549565b60408051601f198184030181529190526020810180517bffffffffffffffffffffffffffffffffffffffffffffffffffffffff167fa3f5c7390000000000000000000000000000000000000000000000000000000017905261371b565b6001600160a01b0382166000908152600d60205260408120546109c414156132ed5760405162461bcd60e51b815260206004820152602b60248201527f5761697420666f7220796f7572206f74686572204d6f6e7320746f2066696e6960448201527f7368206669676874696e6700000000000000000000000000000000000000000060648201526084016106d6565b61332c6040518060400160405280601481526020017f524e4720436f6e74726163742061646472657373000000000000000000000000815250306134ea565b600a546040517f70a082310000000000000000000000000000000000000000000000000000000081523060048201527f00000000000000000000000000000000000000000000000000000000000000006001600160a01b0316906370a082319060240160206040518083038186803b1580156133a757600080fd5b505afa1580156133bb573d6000803e3d6000fd5b505050506040513d601f19601f820116820180604052508101906133df9190613fb0565b101561342d5760405162461bcd60e51b815260206004820152601c60248201527f4e6f7420656e6f756768204c494e4b20696e20636f6e74726163742e0000000060448201526064016106d6565b61343b600954600a54613989565b6000818152600b6020908152604080832080547fffffffffffffffffffffffffffffffffffffffffffffffffffffffff000000001663ffffffff8816179055600c8252808320805473ffffffffffffffffffffffffffffffffffffffff19166001600160a01b038916908117909155808452600d9092528083206109c49055519293509183917f923de4fc4aece24a78a9e4ca3009c571a742f81ac2c004a229224b0fd1883bdd91a392915050565b610ec182826040516024016135009291906143ca565b60408051601f198184030181529190526020810180517bffffffffffffffffffffffffffffffffffffffffffffffffffffffff167f319af3330000000000000000000000000000000000000000000000000000000017905261371b565b6001600160a01b0382166135b35760405162461bcd60e51b815260206004820181905260248201527f4552433732313a206d696e7420746f20746865207a65726f206164647265737360448201526064016106d6565b6000818152600360205260409020546001600160a01b0316156136185760405162461bcd60e51b815260206004820152601c60248201527f4552433732313a20746f6b656e20616c7265616479206d696e7465640000000060448201526064016106d6565b6001600160a01b03821660009081526004602052604081208054600192906136419084906146a4565b9091555050600081815260036020526040808220805473ffffffffffffffffffffffffffffffffffffffff19166001600160a01b03861690811790915590518392907fddf252ad1be2c89b69c2b068fc378daa952ba7f163c4a11628f55a4df523b3ef908290a45050565b610ec182826040516024016136c2929190614527565b60408051601f198184030181529190526020810180517bffffffffffffffffffffffffffffffffffffffffffffffffffffffff167f9710a9d0000000000000000000000000000000000000000000000000000000001790525b80516a636f6e736f6c652e6c6f67602083016000808483855afa5050505050565b600160078381548110613751576137516149cd565b60009182526020822060039182020160020180549092916137749185910b61465b565b92506101000a81548163ffffffff021916908360030b63ffffffff16021790555080600783815481106137a9576137a96149cd565b906000526020600020906003020160020160046101000a81548163ffffffff021916908363ffffffff1602179055505050565b60006001600160a01b0384163b1561397e576040517f150b7a020000000000000000000000000000000000000000000000000000000081526001600160a01b0385169063150b7a0290613839903390899088908890600401614306565b602060405180830381600087803b15801561385357600080fd5b505af1925050508015613883575060408051601f3d908101601f1916820190925261388091810190613e24565b60015b613933573d8080156138b1576040519150601f19603f3d011682016040523d82523d6000602084013e6138b6565b606091505b50805161392b5760405162461bcd60e51b815260206004820152603260248201527f4552433732313a207472616e7366657220746f206e6f6e20455243373231526560448201527f63656976657220696d706c656d656e746572000000000000000000000000000060648201526084016106d6565b805181602001fd5b7fffffffff00000000000000000000000000000000000000000000000000000000167f150b7a02000000000000000000000000000000000000000000000000000000001490506124c9565b506001949350505050565b60007f00000000000000000000000000000000000000000000000000000000000000006001600160a01b0316634000aea07f0000000000000000000000000000000000000000000000000000000000000000848660006040516020016139f9929190918252602082015260400190565b6040516020818303038152906040526040518463ffffffff1660e01b8152600401613a2693929190614342565b602060405180830381600087803b158015613a4057600080fd5b505af1158015613a54573d6000803e3d6000fd5b505050506040513d601f19601f82011682018060405250810190613a789190613dc8565b5060008381526020818152604080832054815180840188905280830185905230606082015260808082018390528351808303909101815260a090910190925281519183019190912086845292909152613ad29060016146a4565b60008581526020818152604091829020929092558051808301879052808201849052815180820383018152606090910190915280519101206124c9565b828054613b1b90614937565b90600052602060002090601f016020900481019282613b3d5760008555613b83565b82601f10613b5657805160ff1916838001178555613b83565b82800160010185558215613b83579182015b82811115613b83578251825591602001919060010190613b68565b50613b8f929150613b93565b5090565b5b80821115613b8f5760008155600101613b94565b600067ffffffffffffffff80841115613bc357613bc36149e3565b604051601f8501601f19908116603f01168101908282118183101715613beb57613beb6149e3565b81604052809350858152868686011115613c0457600080fd5b858560208301376000602087830101525050509392505050565b80356001600160a01b0381168114613c3557600080fd5b919050565b600082601f830112613c4b57600080fd5b613c5a83833560208501613ba8565b9392505050565b600060208284031215613c7357600080fd5b613c5a82613c1e565b60008060408385031215613c8f57600080fd5b613c9883613c1e565b9150613ca660208401613c1e565b90509250929050565b600080600060608486031215613cc457600080fd5b613ccd84613c1e565b9250613cdb60208501613c1e565b9150604084013590509250925092565b60008060008060808587031215613d0157600080fd5b613d0a85613c1e565b9350613d1860208601613c1e565b925060408501359150606085013567ffffffffffffffff811115613d3b57600080fd5b8501601f81018713613d4c57600080fd5b613d5b87823560208401613ba8565b91505092959194509250565b60008060408385031215613d7a57600080fd5b613d8383613c1e565b91506020830135613d93816149f9565b809150509250929050565b60008060408385031215613db157600080fd5b613dba83613c1e565b946020939093013593505050565b600060208284031215613dda57600080fd5b8151613c5a816149f9565b60008060408385031215613df857600080fd5b50508035926020909101359150565b600060208284031215613e1957600080fd5b8135613c5a81614a07565b600060208284031215613e3657600080fd5b8151613c5a81614a07565b60008060408385031215613e5457600080fd5b823567ffffffffffffffff80821115613e6c57600080fd5b613e7886838701613c3a565b93506020850135915080821115613e8e57600080fd5b50613e9b85828601613c3a565b9150509250929050565b600080600060608486031215613eba57600080fd5b833567ffffffffffffffff80821115613ed257600080fd5b613ede87838801613c3a565b94506020860135915080821115613ef457600080fd5b50613f0186828701613c3a565b925050613f1060408501613c1e565b90509250925092565b600080600060608486031215613f2e57600080fd5b833567ffffffffffffffff80821115613f4657600080fd5b613f5287838801613c3a565b94506020860135915080821115613f6857600080fd5b50613f7586828701613c3a565b925050604084013560ff81168114613f8c57600080fd5b809150509250925092565b600060208284031215613fa957600080fd5b5035919050565b600060208284031215613fc257600080fd5b5051919050565b60008151808452613fe18160208601602086016148f4565b601f01601f19169290920160200192915050565b600081516140078185602086016148f4565b9290920192915050565b8054600090600181811c908083168061402b57607f831692505b602080841082141561404d57634e487b7160e01b600052602260045260246000fd5b81801561406157600181146140725761409f565b60ff1986168952848901965061409f565b60008881526020902060005b868110156140975781548b82015290850190830161407e565b505084890196505b50505050505092915050565b7f7b226e616d65223a202200000000000000000000000000000000000000000000815260006140dd600a830189614011565b7f202d2d20494420233a20000000000000000000000000000000000000000000008152875161411381600a840160208c016148f4565b7f222c20226465736372697074696f6e223a20225468697320697320616e204e46600a92909101918201527f542074686174206c6574732070656f706c6520706c617920746865205543334d602a8201527f6f6e2047616d65222c2022696d616765223a2022000000000000000000000000604a820152614197605e820188614011565b90507f222c202261747472696275746573223a205b207b202274726169745f7479706581527f223a20224c6576656c222c202276616c7565223a200000000000000000000000602082015285516141f5816035840160208a016148f4565b7f7d2c207b202274726169745f74797065223a2022457870222c202276616c7565603592909101918201527f223a20000000000000000000000000000000000000000000000000000000000060558201526142b461428b61428561425c6058850189613ff5565b7f2c20226d61785f76616c7565223a2000000000000000000000000000000000008152600f0190565b86613ff5565b7f7d5d7d0000000000000000000000000000000000000000000000000000000000815260030190565b9998505050505050505050565b7f646174613a6170706c69636174696f6e2f6a736f6e3b6261736536342c0000008152600082516142f981601d8501602087016148f4565b91909101601d0192915050565b60006001600160a01b038087168352808616602084015250836040830152608060608301526143386080830184613fc9565b9695505050505050565b6001600160a01b038416815282602082015260606040820152600061436a6060830184613fc9565b95945050505050565b6020808252825182820181905260009190848201906040850190845b818110156143ab5783518352928401929184019160010161438f565b50909695505050505050565b602081526000613c5a6020830184613fc9565b6040815260006143dd6040830185613fc9565b90506001600160a01b03831660208301529392505050565b60a08152600061440860a0830188613fc9565b828103602084015261441a8188613fc9565b60039690960b6040840152505063ffffffff929092166060830152151560809091015292915050565b6080815260006144566080830187613fc9565b82810360208401526144688187613fc9565b9050828103604084015261447c8186613fc9565b905082810360608401526144908185613fc9565b979650505050505050565b6080815260006144ae6080830187613fc9565b82810360208401526144c08187613fc9565b905082810360408401526144d48186613fc9565b91505082606083015295945050505050565b6080815260006144f96080830187613fc9565b828103602084015261450b8187613fc9565b60ff959095166040840152505090151560609091015292915050565b60408152600061453a6040830185613fc9565b90508260208301529392505050565b60608152600061455c6060830186613fc9565b84602084015282810360408401526143388185613fc9565b602081526000825160a0602084015261459060c0840182613fc9565b90506020840151601f198483030160408501526145ad8282613fc9565b915050604084015160030b606084015263ffffffff60608501511660808401526080840151151560a08401528091505092915050565b6020815260008251608060208401526145ff60a0840182613fc9565b90506020840151601f1984830301604085015261461c8282613fc9565b91505060ff60408501511660608401526060840151151560808401528091505092915050565b8281526040602082015260006124c96040830184613fc9565b60008160030b8360030b6000821282637fffffff03821381151615614682576146826149a1565b82637fffffff1903821281161561469b5761469b6149a1565b50019392505050565b600082198211156146b7576146b76149a1565b500190565b600063ffffffff8083168185168083038211156146db576146db6149a1565b01949350505050565b600060ff821660ff84168060ff03821115614701576147016149a1565b019392505050565b60008160030b8360030b80614720576147206149b7565b6000198114637fffffff198314161561473b5761473b6149a1565b90059392505050565b600082614753576147536149b7565b500490565b600063ffffffff8084168061476f5761476f6149b7565b92169190910492915050565b600060ff83168061478e5761478e6149b7565b8060ff84160491505092915050565b60008160030b8360030b637fffffff6000821360008413838304851182821616156147ca576147ca6149a1565b637fffffff1960008512868205861281841616156147ea576147ea6149a1565b60008712925085820587128484161615614806576148066149a1565b8585058712818416161561481c5761481c6149a1565b5050509290910295945050505050565b6000816000190483118215151615614846576148466149a1565b500290565b60008160030b8360030b6000811281637fffffff1901831281151615614873576148736149a1565b81637fffffff01831381161561488b5761488b6149a1565b5090039392505050565b6000828210156148a7576148a76149a1565b500390565b600063ffffffff838116908316818110156148c9576148c96149a1565b039392505050565b600060ff821660ff8416808210156148eb576148eb6149a1565b90039392505050565b60005b8381101561490f5781810151838201526020016148f7565b83811115611b1f5750506000910152565b60008161492f5761492f6149a1565b506000190190565b600181811c9082168061494b57607f821691505b6020821081141561496c57634e487b7160e01b600052602260045260246000fd5b50919050565b6000600019821415614986576149866149a1565b5060010190565b60008261499c5761499c6149b7565b500690565b634e487b7160e01b600052601160045260246000fd5b634e487b7160e01b600052601260045260246000fd5b634e487b7160e01b600052603260045260246000fd5b634e487b7160e01b600052604160045260246000fd5b80151581146106ea57600080fd5b7fffffffff00000000000000000000000000000000000000000000000000000000811681146106ea57600080fdfe4d696e746564206e6577205543334d6f6e2077697468206e616d652025732c20696d61676520257320616e642049442025734142434445464748494a4b4c4d4e4f505152535455565758595a6162636465666768696a6b6c6d6e6f707172737475767778797a303132333435363738392b2fa2646970667358221220123438a21ea4157d5b1f31a376675a91bd5d02b1cb834652bfe8caa6ce66f3e964736f6c63430008070033",
  "linkReferences": {},
  "deployedLinkReferences": {}
}