{
  "_format": "hh-sol-artifact-1",
  "contractName": "PVEArena",
  "sourceName": "contracts/PVEArena.sol",
  "abi": [
    {
      "inputs": [],
      "stateMutability": "nonpayable",
      "type": "constructor"
    },
    {
      "anonymous": false,
      "inputs": [
        {
          "indexed": true,
          "internalType": "address",
          "name": "owner",
          "type": "address"
        },
        {
          "indexed": true,
          "internalType": "address",
          "name": "approved",
          "type": "address"
        },
        {
          "indexed": true,
          "internalType": "uint256",
          "name": "tokenId",
          "type": "uint256"
        }
      ],
      "name": "Approval",
      "type": "event"
    },
    {
      "anonymous": false,
      "inputs": [
        {
          "indexed": true,
          "internalType": "address",
          "name": "owner",
          "type": "address"
        },
        {
          "indexed": true,
          "internalType": "address",
          "name": "operator",
          "type": "address"
        },
        {
          "indexed": false,
          "internalType": "bool",
          "name": "approved",
          "type": "bool"
        }
      ],
      "name": "ApprovalForAll",
      "type": "event"
    },
    {
      "anonymous": false,
      "inputs": [
        {
          "indexed": true,
          "internalType": "bytes32",
          "name": "requestId",
          "type": "bytes32"
        },
        {
          "indexed": true,
          "internalType": "uint256",
          "name": "result",
          "type": "uint256"
        }
      ],
      "name": "DiceLanded",
      "type": "event"
    },
    {
      "anonymous": false,
      "inputs": [
        {
          "indexed": true,
          "internalType": "bytes32",
          "name": "requestId",
          "type": "bytes32"
        },
        {
          "indexed": true,
          "internalType": "address",
          "name": "roller",
          "type": "address"
        }
      ],
      "name": "DiceRolled",
      "type": "event"
    },
    {
      "anonymous": false,
      "inputs": [
        {
          "indexed": true,
          "internalType": "uint256",
          "name": "monId",
          "type": "uint256"
        },
        {
          "indexed": true,
          "internalType": "uint256",
          "name": "enemyId",
          "type": "uint256"
        }
      ],
      "name": "FightResolved",
      "type": "event"
    },
    {
      "anonymous": false,
      "inputs": [
        {
          "indexed": false,
          "internalType": "address",
          "name": "sender",
          "type": "address"
        },
        {
          "indexed": false,
          "internalType": "uint256",
          "name": "tokenId",
          "type": "uint256"
        }
      ],
      "name": "NFTMinted",
      "type": "event"
    },
    {
      "anonymous": false,
      "inputs": [
        {
          "indexed": true,
          "internalType": "address",
          "name": "previousOwner",
          "type": "address"
        },
        {
          "indexed": true,
          "internalType": "address",
          "name": "newOwner",
          "type": "address"
        }
      ],
      "name": "OwnershipTransferred",
      "type": "event"
    },
    {
      "anonymous": false,
      "inputs": [
        {
          "indexed": true,
          "internalType": "address",
          "name": "from",
          "type": "address"
        },
        {
          "indexed": true,
          "internalType": "address",
          "name": "to",
          "type": "address"
        },
        {
          "indexed": true,
          "internalType": "uint256",
          "name": "tokenId",
          "type": "uint256"
        }
      ],
      "name": "Transfer",
      "type": "event"
    },
    {
      "anonymous": false,
      "inputs": [
        {
          "indexed": false,
          "internalType": "uint256",
          "name": "id",
          "type": "uint256"
        },
        {
          "indexed": false,
          "internalType": "string",
          "name": "name",
          "type": "string"
        }
      ],
      "name": "createdEnemy",
      "type": "event"
    },
    {
      "inputs": [
        {
          "internalType": "address",
          "name": "to",
          "type": "address"
        },
        {
          "internalType": "uint256",
          "name": "tokenId",
          "type": "uint256"
        }
      ],
      "name": "approve",
      "outputs": [],
      "stateMutability": "nonpayable",
      "type": "function"
    },
    {
      "inputs": [
        {
          "internalType": "address",
          "name": "owner",
          "type": "address"
        }
      ],
      "name": "balanceOf",
      "outputs": [
        {
          "internalType": "uint256",
          "name": "",
          "type": "uint256"
        }
      ],
      "stateMutability": "view",
      "type": "function"
    },
    {
      "inputs": [
        {
          "internalType": "string",
          "name": "_name",
          "type": "string"
        },
        {
          "internalType": "string",
          "name": "_img",
          "type": "string"
        },
        {
          "internalType": "uint8",
          "name": "_chance",
          "type": "uint8"
        }
      ],
      "name": "createEnemy",
      "outputs": [],
      "stateMutability": "nonpayable",
      "type": "function"
    },
    {
      "inputs": [
        {
          "internalType": "address",
          "name": "_contract",
          "type": "address"
        }
      ],
      "name": "createUC3MToken",
      "outputs": [],
      "stateMutability": "nonpayable",
      "type": "function"
    },
    {
      "inputs": [
        {
          "internalType": "string",
          "name": "_name",
          "type": "string"
        },
        {
          "internalType": "string",
          "name": "_img",
          "type": "string"
        }
      ],
      "name": "createUC3Mon",
      "outputs": [],
      "stateMutability": "nonpayable",
      "type": "function"
    },
    {
      "inputs": [
        {
          "internalType": "string",
          "name": "_name",
          "type": "string"
        },
        {
          "internalType": "address",
          "name": "_owner",
          "type": "address"
        }
      ],
      "name": "createUC3MonToAddress",
      "outputs": [],
      "stateMutability": "nonpayable",
      "type": "function"
    },
    {
      "inputs": [
        {
          "internalType": "uint256",
          "name": "",
          "type": "uint256"
        }
      ],
      "name": "enemies",
      "outputs": [
        {
          "internalType": "string",
          "name": "name",
          "type": "string"
        },
        {
          "internalType": "string",
          "name": "img",
          "type": "string"
        },
        {
          "internalType": "uint8",
          "name": "chance",
          "type": "uint8"
        },
        {
          "internalType": "bool",
          "name": "alive",
          "type": "bool"
        }
      ],
      "stateMutability": "view",
      "type": "function"
    },
    {
      "inputs": [
        {
          "internalType": "uint256",
          "name": "_monId",
          "type": "uint256"
        },
        {
          "internalType": "uint256",
          "name": "_enemyId",
          "type": "uint256"
        }
      ],
      "name": "fight",
      "outputs": [],
      "stateMutability": "nonpayable",
      "type": "function"
    },
    {
      "inputs": [
        {
          "internalType": "uint256",
          "name": "_monId",
          "type": "uint256"
        },
        {
          "internalType": "uint256",
          "name": "_enemyId",
          "type": "uint256"
        }
      ],
      "name": "fightResult",
      "outputs": [],
      "stateMutability": "nonpayable",
      "type": "function"
    },
    {
      "inputs": [
        {
          "internalType": "uint256",
          "name": "tokenId",
          "type": "uint256"
        }
      ],
      "name": "getApproved",
      "outputs": [
        {
          "internalType": "address",
          "name": "",
          "type": "address"
        }
      ],
      "stateMutability": "view",
      "type": "function"
    },
    {
      "inputs": [
        {
          "internalType": "uint256",
          "name": "_enemyId",
          "type": "uint256"
        }
      ],
      "name": "getEnemyInfo",
      "outputs": [
        {
          "components": [
            {
              "internalType": "string",
              "name": "name",
              "type": "string"
            },
            {
              "internalType": "string",
              "name": "img",
              "type": "string"
            },
            {
              "internalType": "uint8",
              "name": "chance",
              "type": "uint8"
            },
            {
              "internalType": "bool",
              "name": "alive",
              "type": "bool"
            }
          ],
          "internalType": "struct PVEArena.enemy",
          "name": "",
          "type": "tuple"
        }
      ],
      "stateMutability": "view",
      "type": "function"
    },
    {
      "inputs": [],
      "name": "getExistingEnemiesIds",
      "outputs": [
        {
          "internalType": "uint256[]",
          "name": "",
          "type": "uint256[]"
        }
      ],
      "stateMutability": "view",
      "type": "function"
    },
    {
      "inputs": [
        {
          "internalType": "uint256",
          "name": "_id",
          "type": "uint256"
        }
      ],
      "name": "getMonInfo",
      "outputs": [
        {
          "components": [
            {
              "internalType": "string",
              "name": "name",
              "type": "string"
            },
            {
              "internalType": "string",
              "name": "img",
              "type": "string"
            },
            {
              "internalType": "uint256",
              "name": "dna",
              "type": "uint256"
            },
            {
              "internalType": "int32",
              "name": "level",
              "type": "int32"
            },
            {
              "internalType": "uint32",
              "name": "exp",
              "type": "uint32"
            },
            {
              "internalType": "bool",
              "name": "fighting",
              "type": "bool"
            }
          ],
          "internalType": "struct NFT.UC3Mon",
          "name": "",
          "type": "tuple"
        }
      ],
      "stateMutability": "view",
      "type": "function"
    },
    {
      "inputs": [
        {
          "internalType": "address",
          "name": "_owner",
          "type": "address"
        }
      ],
      "name": "getMonsByOwner",
      "outputs": [
        {
          "internalType": "uint256[]",
          "name": "",
          "type": "uint256[]"
        }
      ],
      "stateMutability": "view",
      "type": "function"
    },
    {
      "inputs": [],
      "name": "getMsgSender",
      "outputs": [
        {
          "internalType": "address",
          "name": "",
          "type": "address"
        }
      ],
      "stateMutability": "view",
      "type": "function"
    },
    {
      "inputs": [],
      "name": "getOwnedMons",
      "outputs": [
        {
          "internalType": "uint256[]",
          "name": "",
          "type": "uint256[]"
        }
      ],
      "stateMutability": "view",
      "type": "function"
    },
    {
      "inputs": [],
      "name": "getResult",
      "outputs": [
        {
          "internalType": "uint256",
          "name": "result",
          "type": "uint256"
        }
      ],
      "stateMutability": "view",
      "type": "function"
    },
    {
      "inputs": [
        {
          "internalType": "address",
          "name": "_player",
          "type": "address"
        }
      ],
      "name": "getRolledNumber",
      "outputs": [
        {
          "internalType": "uint256",
          "name": "result",
          "type": "uint256"
        }
      ],
      "stateMutability": "view",
      "type": "function"
    },
    {
      "inputs": [],
      "name": "getTokenOwner",
      "outputs": [
        {
          "internalType": "address",
          "name": "",
          "type": "address"
        }
      ],
      "stateMutability": "view",
      "type": "function"
    },
    {
      "inputs": [
        {
          "internalType": "uint256",
          "name": "_supply",
          "type": "uint256"
        }
      ],
      "name": "initialSupply",
      "outputs": [],
      "stateMutability": "nonpayable",
      "type": "function"
    },
    {
      "inputs": [
        {
          "internalType": "address",
          "name": "owner",
          "type": "address"
        },
        {
          "internalType": "address",
          "name": "operator",
          "type": "address"
        }
      ],
      "name": "isApprovedForAll",
      "outputs": [
        {
          "internalType": "bool",
          "name": "",
          "type": "bool"
        }
      ],
      "stateMutability": "view",
      "type": "function"
    },
    {
      "inputs": [
        {
          "internalType": "uint256",
          "name": "_enemyId",
          "type": "uint256"
        }
      ],
      "name": "killEnemy",
      "outputs": [],
      "stateMutability": "nonpayable",
      "type": "function"
    },
    {
      "inputs": [],
      "name": "name",
      "outputs": [
        {
          "internalType": "string",
          "name": "",
          "type": "string"
        }
      ],
      "stateMutability": "view",
      "type": "function"
    },
    {
      "inputs": [],
      "name": "numAliveEnemies",
      "outputs": [
        {
          "internalType": "uint256",
          "name": "",
          "type": "uint256"
        }
      ],
      "stateMutability": "view",
      "type": "function"
    },
    {
      "inputs": [],
      "name": "owner",
      "outputs": [
        {
          "internalType": "address",
          "name": "",
          "type": "address"
        }
      ],
      "stateMutability": "view",
      "type": "function"
    },
    {
      "inputs": [
        {
          "internalType": "uint256",
          "name": "tokenId",
          "type": "uint256"
        }
      ],
      "name": "ownerOf",
      "outputs": [
        {
          "internalType": "address",
          "name": "",
          "type": "address"
        }
      ],
      "stateMutability": "view",
      "type": "function"
    },
    {
      "inputs": [
        {
          "internalType": "bytes32",
          "name": "requestId",
          "type": "bytes32"
        },
        {
          "internalType": "uint256",
          "name": "randomness",
          "type": "uint256"
        }
      ],
      "name": "rawFulfillRandomness",
      "outputs": [],
      "stateMutability": "nonpayable",
      "type": "function"
    },
    {
      "inputs": [],
      "name": "renounceOwnership",
      "outputs": [],
      "stateMutability": "nonpayable",
      "type": "function"
    },
    {
      "inputs": [
        {
          "internalType": "address",
          "name": "from",
          "type": "address"
        },
        {
          "internalType": "address",
          "name": "to",
          "type": "address"
        },
        {
          "internalType": "uint256",
          "name": "tokenId",
          "type": "uint256"
        }
      ],
      "name": "safeTransferFrom",
      "outputs": [],
      "stateMutability": "nonpayable",
      "type": "function"
    },
    {
      "inputs": [
        {
          "internalType": "address",
          "name": "from",
          "type": "address"
        },
        {
          "internalType": "address",
          "name": "to",
          "type": "address"
        },
        {
          "internalType": "uint256",
          "name": "tokenId",
          "type": "uint256"
        },
        {
          "internalType": "bytes",
          "name": "_data",
          "type": "bytes"
        }
      ],
      "name": "safeTransferFrom",
      "outputs": [],
      "stateMutability": "nonpayable",
      "type": "function"
    },
    {
      "inputs": [
        {
          "internalType": "address",
          "name": "operator",
          "type": "address"
        },
        {
          "internalType": "bool",
          "name": "approved",
          "type": "bool"
        }
      ],
      "name": "setApprovalForAll",
      "outputs": [],
      "stateMutability": "nonpayable",
      "type": "function"
    },
    {
      "inputs": [
        {
          "internalType": "bytes4",
          "name": "interfaceId",
          "type": "bytes4"
        }
      ],
      "name": "supportsInterface",
      "outputs": [
        {
          "internalType": "bool",
          "name": "",
          "type": "bool"
        }
      ],
      "stateMutability": "view",
      "type": "function"
    },
    {
      "inputs": [],
      "name": "symbol",
      "outputs": [
        {
          "internalType": "string",
          "name": "",
          "type": "string"
        }
      ],
      "stateMutability": "view",
      "type": "function"
    },
    {
      "inputs": [
        {
          "internalType": "uint256",
          "name": "_tokenId",
          "type": "uint256"
        }
      ],
      "name": "tokenURI",
      "outputs": [
        {
          "internalType": "string",
          "name": "",
          "type": "string"
        }
      ],
      "stateMutability": "view",
      "type": "function"
    },
    {
      "inputs": [
        {
          "internalType": "address",
          "name": "from",
          "type": "address"
        },
        {
          "internalType": "address",
          "name": "to",
          "type": "address"
        },
        {
          "internalType": "uint256",
          "name": "tokenId",
          "type": "uint256"
        }
      ],
      "name": "transferFrom",
      "outputs": [],
      "stateMutability": "nonpayable",
      "type": "function"
    },
    {
      "inputs": [
        {
          "internalType": "address",
          "name": "newOwner",
          "type": "address"
        }
      ],
      "name": "transferOwnership",
      "outputs": [],
      "stateMutability": "nonpayable",
      "type": "function"
    },
    {
      "inputs": [],
      "name": "uc3mToken",
      "outputs": [
        {
          "internalType": "contract UC3MCoin",
          "name": "",
          "type": "address"
        }
      ],
      "stateMutability": "view",
      "type": "function"
    },
    {
      "inputs": [
        {
          "internalType": "uint256",
          "name": "",
          "type": "uint256"
        }
      ],
      "name": "uc3mons",
      "outputs": [
        {
          "internalType": "string",
          "name": "name",
          "type": "string"
        },
        {
          "internalType": "string",
          "name": "img",
          "type": "string"
        },
        {
          "internalType": "uint256",
          "name": "dna",
          "type": "uint256"
        },
        {
          "internalType": "int32",
          "name": "level",
          "type": "int32"
        },
        {
          "internalType": "uint32",
          "name": "exp",
          "type": "uint32"
        },
        {
          "internalType": "bool",
          "name": "fighting",
          "type": "bool"
        }
      ],
      "stateMutability": "view",
      "type": "function"
    }
  ],
  "bytecode": "0x60c0604052601060078190556200001890600a620002ac565b600855601180546001600160a01b031990811673b3dccb4cf7a26f6cf6b120cf5a73875b7bbc655b17909155601280549091167301be23585060835e02b77ef475b0cc51aa1e07091790557f2ed0feb3e7fd2022120aa84fab1945545a9f2ffc9076fd6156fa96eaff4c131160135567016345785d8a0000601455348015620000a057600080fd5b5060115460125460135460145460408051808201825260068152652aa199a6b7b760d11b602080830191825283518085019094526004845263784fc8df60e11b908401526001600160601b0319606088811b821660a05287901b1660805281516001600160a01b039788169796909616959192916200012291600191620001bd565b50805162000138906002906020840190620001bd565b505050620001556200014f6200016760201b60201c565b6200016b565b600b91909155600c5550620003ca9050565b3390565b600a80546001600160a01b038381166001600160a01b0319831681179093556040519116919082907f8be0079c531659141344cd1fd0a4f28419497f9722a3daafe3b4186f6b6457e090600090a35050565b828054620001cb9062000377565b90600052602060002090601f016020900481019282620001ef57600085556200023a565b82601f106200020a57805160ff19168380011785556200023a565b828001600101855582156200023a579182015b828111156200023a5782518255916020019190600101906200021d565b50620002489291506200024c565b5090565b5b808211156200024857600081556001016200024d565b600181815b80851115620002a4578160001904821115620002885762000288620003b4565b808516156200029657918102915b93841c939080029062000268565b509250929050565b6000620002ba8383620002c1565b9392505050565b600082620002d25750600162000371565b81620002e15750600062000371565b8160018114620002fa5760028114620003055762000325565b600191505062000371565b60ff841115620003195762000319620003b4565b50506001821b62000371565b5060208310610133831016604e8410600b84101617156200034a575081810a62000371565b62000356838362000263565b80600019048211156200036d576200036d620003b4565b0290505b92915050565b600181811c908216806200038c57607f821691505b60208210811415620003ae57634e487b7160e01b600052602260045260246000fd5b50919050565b634e487b7160e01b600052601160045260246000fd5b60805160601c60a05160601c614c6f62000404600039600081816116e90152613ac20152600081816134620152613a930152614c6f6000f3fe608060405234801561001057600080fd5b50600436106102925760003560e01c80637a6ce2e111610160578063b88d4fde116100d8578063ca39e5ef1161008c578063e985e9c511610071578063e985e9c51461056e578063f2fde38b146105aa578063f78f2c22146105bd57600080fd5b8063ca39e5ef14610546578063de2927891461055957600080fd5b8063c7aa652a116100bd578063c7aa652a146104f7578063c87b56dd1461050a578063c96691791461051d57600080fd5b8063b88d4fde146104d1578063c3b719a0146104e457600080fd5b806395d89b411161012f578063a9ffc3a411610114578063a9ffc3a4146104ae578063afd2618a146104b6578063b7182b95146104c957600080fd5b806395d89b4114610493578063a22cb4651461049b57600080fd5b80637a6ce2e1146104565780637da3cd761461045c5780638da5cb5b1461046f57806394985ddd1461048057600080fd5b806343c7db3b1161020e5780635c21d16e116101c25780636352211e116101a75780636352211e1461042857806370a082311461043b578063715018a61461044e57600080fd5b80635c21d16e146103e85780635cb9d5771461040857600080fd5b806354341980116101f3578063543419801461039f57806358636b00146103c25780635b99e7a9146103d557600080fd5b806343c7db3b14610377578063531fb0981461038a57600080fd5b806323b872dd116102655780633ffb11fd1161024a5780633ffb11fd1461033a57806342842e0e1461034d57806343bb5a151461036057600080fd5b806323b872dd14610314578063362b45961461032757600080fd5b806301ffc9a71461029757806306fdde03146102bf578063081812fc146102d4578063095ea7b3146102ff575b600080fd5b6102aa6102a5366004613f11565b6105e2565b60405190151581526020015b60405180910390f35b6102c76106c7565b6040516102b691906144f4565b6102e76102e2366004614074565b610759565b6040516001600160a01b0390911681526020016102b6565b61031261030d366004613ea6565b610804565b005b610312610322366004613db7565b610936565b610312610335366004613f4b565b6109bd565b610312610348366004613eef565b610a55565b61031261035b366004613db7565b610dde565b61036960165481565b6040519081526020016102b6565b610312610385366004613f92565b610df9565b610392610e6e565b6040516102b691906144b0565b6103b26103ad366004614074565b610f44565b6040516102b6949392919061462b565b6103126103d0366004614074565b61109a565b6103926103e3366004613d44565b611123565b6103fb6103f6366004614074565b6111eb565b6040516102b69190614732565b61041b610416366004614074565b611384565b6040516102b691906146b9565b6102e7610436366004614074565b611553565b610369610449366004613d44565b6115de565b610312611678565b336102e7565b6010546102e7906001600160a01b031681565b600a546001600160a01b03166102e7565b61031261048e366004613eef565b6116de565b6102c7611764565b6103126104a9366004613e78565b611773565b61039261177e565b6103126104c4366004613ff6565b611834565b6102e7611a41565b6103126104df366004613df8565b611adc565b6103126104f2366004614074565b611b64565b610312610505366004613d44565b611be4565b6102c7610518366004614074565b611c6d565b61036961052b366004613d44565b6001600160a01b03166000908152600f602052604090205490565b610312610554366004613eef565b611dc8565b336000908152600f6020526040902054610369565b6102aa61057c366004613d7e565b6001600160a01b03918216600090815260066020908152604080832093909416825291909152205460ff1690565b6103126105b8366004613d44565b612129565b6105d06105cb366004614074565b61220b565b6040516102b6969594939291906145d5565b60007fffffffff0000000000000000000000000000000000000000000000000000000082167f80ac58cd00000000000000000000000000000000000000000000000000000000148061067557507fffffffff0000000000000000000000000000000000000000000000000000000082167f5b5e139f00000000000000000000000000000000000000000000000000000000145b806106c157507f01ffc9a7000000000000000000000000000000000000000000000000000000007fffffffff000000000000000000000000000000000000000000000000000000008316145b92915050565b6060600180546106d690614a86565b80601f016020809104026020016040519081016040528092919081815260200182805461070290614a86565b801561074f5780601f106107245761010080835404028352916020019161074f565b820191906000526020600020905b81548152906001019060200180831161073257829003601f168201915b5050505050905090565b6000818152600360205260408120546001600160a01b03166107e85760405162461bcd60e51b815260206004820152602c60248201527f4552433732313a20617070726f76656420717565727920666f72206e6f6e657860448201527f697374656e7420746f6b656e000000000000000000000000000000000000000060648201526084015b60405180910390fd5b506000908152600560205260409020546001600160a01b031690565b600061080f82611553565b9050806001600160a01b0316836001600160a01b031614156108995760405162461bcd60e51b815260206004820152602160248201527f4552433732313a20617070726f76616c20746f2063757272656e74206f776e6560448201527f720000000000000000000000000000000000000000000000000000000000000060648201526084016107df565b336001600160a01b03821614806108b557506108b5813361057c565b6109275760405162461bcd60e51b815260206004820152603860248201527f4552433732313a20617070726f76652063616c6c6572206973206e6f74206f7760448201527f6e6572206e6f7220617070726f76656420666f7220616c6c000000000000000060648201526084016107df565b610931838361237f565b505050565b61094033826123fa565b6109b25760405162461bcd60e51b815260206004820152603160248201527f4552433732313a207472616e736665722063616c6c6572206973206e6f74206f60448201527f776e6572206e6f7220617070726f76656400000000000000000000000000000060648201526084016107df565b610931838383612502565b600a546001600160a01b03163314610a175760405162461bcd60e51b815260206004820181905260248201527f4f776e61626c653a2063616c6c6572206973206e6f7420746865206f776e657260448201526064016107df565b6000610a22836126dc565b905060006040518060600160405280602e8152602001614c0c602e91399050610a4f8482846001876126fb565b50505050565b610a5e82611553565b6001600160a01b0381166000908152600f6020526040902054610ae95760405162461bcd60e51b815260206004820152602160248201527f506c6179657220686173206e6f7420656e676167656420696e20626174746c6560448201527f210000000000000000000000000000000000000000000000000000000000000060648201526084016107df565b6001600160a01b0381166000908152600f60205260409020546109c41415610b535760405162461bcd60e51b815260206004820152601360248201527f426174746c6520696e2070726f6772657373210000000000000000000000000060448201526064016107df565b6000610b5e84611553565b6001600160a01b038116600090815260176020526040902054909150831415610bef5760405162461bcd60e51b815260206004820152602d60248201527f466967687420616c7265616479207265736f6c7665642c20726577617264206160448201527f6c7265616479206561726e65640000000000000000000000000000000000000060648201526084016107df565b6001600160a01b0381166000908152601760205260408120849055610c159085906128f7565b600060158481548110610c2a57610c2a614b1c565b6000918252602082206002600390920201015460ff169150610c4d826064614a20565b9050610c828360158781548110610c6657610c66614b1c565b600091825260209091206002600390920201015460ff16612937565b15610d8157610cc56040518060400160405280600c81526020017f506c617965722077696e732100000000000000000000000000000000000000008152506129d1565b60006005610cd684830b606461499a565b60098981548110610ce957610ce9614b1c565b600091825260209091206003600490920201810154610d0a910b60646148ec565b610d1491906148ec565b610d1e9190614858565b60098881548110610d3157610d31614b1c565b600091825260209091206003600490920201810154610d52910b60646148ec565b610d5c91906147aa565b63ffffffff169050610d6e8482612a42565b610d7b878360ff16612abd565b50610dd6565b610dbf6040518060400160405280600d81526020017f4d6f6e737465722077696e7321000000000000000000000000000000000000008152506129d1565b610dd686610dce600a846148ca565b60ff16612abd565b505050505050565b61093183838360405180602001604052806000815250611adc565b600a546001600160a01b03163314610e535760405162461bcd60e51b815260206004820181905260248201527f4f776e61626c653a2063616c6c6572206973206e6f7420746865206f776e657260448201526064016107df565b6000610e5e836126dc565b90506109318383836001336126fb565b6060600060165467ffffffffffffffff811115610e8d57610e8d614b32565b604051908082528060200260200182016040528015610eb6578160200160208202803683370190505b5090506000805b601554811015610f3c5760158181548110610eda57610eda614b1c565b906000526020600020906003020160020160019054906101000a900460ff1615610f2a5780838381518110610f1157610f11614b1c565b602090810291909101015281610f2681614ac1565b9250505b80610f3481614ac1565b915050610ebd565b509092915050565b60158181548110610f5457600080fd5b9060005260206000209060030201600091509050806000018054610f7790614a86565b80601f0160208091040260200160405190810160405280929190818152602001828054610fa390614a86565b8015610ff05780601f10610fc557610100808354040283529160200191610ff0565b820191906000526020600020905b815481529060010190602001808311610fd357829003601f168201915b50505050509080600101805461100590614a86565b80601f016020809104026020016040519081016040528092919081815260200182805461103190614a86565b801561107e5780601f106110535761010080835404028352916020019161107e565b820191906000526020600020905b81548152906001019060200180831161106157829003601f168201915b5050506002909301549192505060ff8082169161010090041684565b600a546001600160a01b031633146110f45760405162461bcd60e51b815260206004820181905260248201527f4f776e61626c653a2063616c6c6572206973206e6f7420746865206f776e657260448201526064016107df565b6015818154811061110757611107614b1c565b506000908152601680549161111b83614a6f565b919050555050565b60606000611130836115de565b67ffffffffffffffff81111561114857611148614b32565b604051908082528060200260200182016040528015611171578160200160208202803683370190505b5090506000805b6009548110156111e257846001600160a01b031661119582611553565b6001600160a01b031614156111d057808383815181106111b7576111b7614b1c565b6020908102919091010152816111cc81614ac1565b9250505b806111da81614ac1565b915050611178565b50909392505050565b6040805160808101825260608082526020820181905260009282018390528101919091526015828154811061122257611222614b1c565b906000526020600020906003020160405180608001604052908160008201805461124b90614a86565b80601f016020809104026020016040519081016040528092919081815260200182805461127790614a86565b80156112c45780601f10611299576101008083540402835291602001916112c4565b820191906000526020600020905b8154815290600101906020018083116112a757829003601f168201915b505050505081526020016001820180546112dd90614a86565b80601f016020809104026020016040519081016040528092919081815260200182805461130990614a86565b80156113565780601f1061132b57610100808354040283529160200191611356565b820191906000526020600020905b81548152906001019060200180831161133957829003601f168201915b50505091835250506002919091015460ff808216602084015261010090910416151560409091015292915050565b6040805160c081018252606080825260208201819052600092820183905281018290526080810182905260a0810191909152600982815481106113c9576113c9614b1c565b90600052602060002090600402016040518060c00160405290816000820180546113f290614a86565b80601f016020809104026020016040519081016040528092919081815260200182805461141e90614a86565b801561146b5780601f106114405761010080835404028352916020019161146b565b820191906000526020600020905b81548152906001019060200180831161144e57829003601f168201915b5050505050815260200160018201805461148490614a86565b80601f01602080910402602001604051908101604052809291908181526020018280546114b090614a86565b80156114fd5780601f106114d2576101008083540402835291602001916114fd565b820191906000526020600020905b8154815290600101906020018083116114e057829003601f168201915b50505091835250506002820154602082015260039182015480830b830b90920b6040820152640100000000820463ffffffff1660608201526801000000000000000090910460ff16151560809091015292915050565b6000818152600360205260408120546001600160a01b0316806106c15760405162461bcd60e51b815260206004820152602960248201527f4552433732313a206f776e657220717565727920666f72206e6f6e657869737460448201527f656e7420746f6b656e000000000000000000000000000000000000000000000060648201526084016107df565b60006001600160a01b03821661165c5760405162461bcd60e51b815260206004820152602a60248201527f4552433732313a2062616c616e636520717565727920666f7220746865207a6560448201527f726f20616464726573730000000000000000000000000000000000000000000060648201526084016107df565b506001600160a01b031660009081526004602052604090205490565b600a546001600160a01b031633146116d25760405162461bcd60e51b815260206004820181905260248201527f4f776e61626c653a2063616c6c6572206973206e6f7420746865206f776e657260448201526064016107df565b6116dc6000612c1b565b565b336001600160a01b037f000000000000000000000000000000000000000000000000000000000000000016146117565760405162461bcd60e51b815260206004820152601f60248201527f4f6e6c7920565246436f6f7264696e61746f722063616e2066756c66696c6c0060448201526064016107df565b6117608282612c7a565b5050565b6060600280546106d690614a86565b611760338383612d5d565b6060600061178b336115de565b67ffffffffffffffff8111156117a3576117a3614b32565b6040519080825280602002602001820160405280156117cc578160200160208202803683370190505b5090506000805b600954811015610f3c57336117e782611553565b6001600160a01b03161415611822578083838151811061180957611809614b1c565b60209081029190910101528161181e81614ac1565b9250505b8061182c81614ac1565b9150506117d3565b600a546001600160a01b0316331461188e5760405162461bcd60e51b815260206004820181905260248201527f4f776e61626c653a2063616c6c6572206973206e6f7420746865206f776e657260448201526064016107df565b60408051608081018252848152602080820185905260ff84169282019290925260016060820181905260158054918201815560005281518051929360039092027f55f448fdea98c4d29eb340757ef0a66cd03dbb9538908a6a81d96026b71ec47501926118fe9284920190613c15565b5060208281015180516119179260018501920190613c15565b506040820151600290910180546060909301511515610100027fffffffffffffffffffffffffffffffffffffffffffffffffffffffffffff000090931660ff90921691909117919091179055601554600090611975906001906149e4565b90506119ed6040518060400160405280601781526020017f4372656174656420656e656d792077697468206e616d65000000000000000000815250856040518060400160405280600681526020017f616e64204944000000000000000000000000000000000000000000000000000081525084612e2c565b601680549060006119fd83614ac1565b91905055507fcce27da5415e2a1b970ff97d07827ffc2f208330cdf38173baadf37ddd6492668185604051611a33929190614791565b60405180910390a150505050565b601054604080517f8da5cb5b00000000000000000000000000000000000000000000000000000000815290516000926001600160a01b031691638da5cb5b916004808301926020929190829003018186803b158015611a9f57600080fd5b505afa158015611ab3573d6000803e3d6000fd5b505050506040513d601f19601f82011682018060405250810190611ad79190613d61565b905090565b611ae633836123fa565b611b585760405162461bcd60e51b815260206004820152603160248201527f4552433732313a207472616e736665722063616c6c6572206973206e6f74206f60448201527f776e6572206e6f7220617070726f76656400000000000000000000000000000060648201526084016107df565b610a4f84848484612ea3565b6010546040517f40c10f19000000000000000000000000000000000000000000000000000000008152306004820152602481018390526001600160a01b03909116906340c10f1990604401600060405180830381600087803b158015611bc957600080fd5b505af1158015611bdd573d6000803e3d6000fd5b5050505050565b600a546001600160a01b03163314611c3e5760405162461bcd60e51b815260206004820181905260248201527f4f776e61626c653a2063616c6c6572206973206e6f7420746865206f776e657260448201526064016107df565b6010805473ffffffffffffffffffffffffffffffffffffffff19166001600160a01b0392909216919091179055565b60606000611d9b60098481548110611c8757611c87614b1c565b9060005260206000209060040201600001611ca185612f2c565b60098681548110611cb457611cb4614b1c565b9060005260206000209060040201600101611cf260098881548110611cdb57611cdb614b1c565b906000526020600020906004020160020154612f2c565b611d2a60098981548110611d0857611d08614b1c565b60009182526020909120600360049092020181015463ffffffff910b16612f2c565b611d6760098a81548110611d4057611d40614b1c565b6000918252602090912060049091020160030154640100000000900463ffffffff16612f2c565b611d716064612f2c565b604051602001611d879796959493929190614188565b60405160208183030381529060405261305e565b9050600081604051602001611db091906143fe565b60408051601f19818403018152919052949350505050565b60098281548110611ddb57611ddb614b1c565b906000526020600020906004020160030160089054906101000a900460ff1615611e6d5760405162461bcd60e51b815260206004820152602260248201527f5543334d6f6e20616c726561647920656e676167656420696e2061206669676860448201527f742100000000000000000000000000000000000000000000000000000000000060648201526084016107df565b611e788260016128f7565b6000611e8383611553565b90506120536040518060400160405280600981526020017f46696768746572733a000000000000000000000000000000000000000000000081525060098581548110611ed157611ed1614b1c565b90600052602060002090600402016000018054611eed90614a86565b80601f0160208091040260200160405190810160405280929190818152602001828054611f1990614a86565b8015611f665780601f10611f3b57610100808354040283529160200191611f66565b820191906000526020600020905b815481529060010190602001808311611f4957829003601f168201915b50505050506040518060400160405280600281526020017f767300000000000000000000000000000000000000000000000000000000000081525060158681548110611fb457611fb4614b1c565b90600052602060002090600302016000018054611fd090614a86565b80601f0160208091040260200160405190810160405280929190818152602001828054611ffc90614a86565b80156120495780601f1061201e57610100808354040283529160200191612049565b820191906000526020600020905b81548152906001019060200180831161202c57829003601f168201915b5050505050613219565b60006015838154811061206857612068614b1c565b906000526020600020906003020160020160009054906101000a900460ff1690506121016040518060400160405280601681526020017f46696768742120566963746f7279206368616e63653a000000000000000000008152508260ff166040518060400160405280600181526020017f2500000000000000000000000000000000000000000000000000000000000000815250613290565b6001600160a01b03821660009081526017602052604090206000199055611bdd826064613305565b600a546001600160a01b031633146121835760405162461bcd60e51b815260206004820181905260248201527f4f776e61626c653a2063616c6c6572206973206e6f7420746865206f776e657260448201526064016107df565b6001600160a01b0381166121ff5760405162461bcd60e51b815260206004820152602660248201527f4f776e61626c653a206e6577206f776e657220697320746865207a65726f206160448201527f646472657373000000000000000000000000000000000000000000000000000060648201526084016107df565b61220881612c1b565b50565b6009818154811061221b57600080fd5b906000526020600020906004020160009150905080600001805461223e90614a86565b80601f016020809104026020016040519081016040528092919081815260200182805461226a90614a86565b80156122b75780601f1061228c576101008083540402835291602001916122b7565b820191906000526020600020905b81548152906001019060200180831161229a57829003601f168201915b5050505050908060010180546122cc90614a86565b80601f01602080910402602001604051908101604052809291908181526020018280546122f890614a86565b80156123455780601f1061231a57610100808354040283529160200191612345565b820191906000526020600020905b81548152906001019060200180831161232857829003601f168201915b505050506002830154600393840154929390929081900b9150640100000000810463ffffffff169068010000000000000000900460ff1686565b6000818152600560205260409020805473ffffffffffffffffffffffffffffffffffffffff19166001600160a01b03841690811790915581906123c182611553565b6001600160a01b03167f8c5be1e5ebec7d5bd14f71427d1e84f3dd0314c0f7b2291e5b200ac8c7c3b92560405160405180910390a45050565b6000818152600360205260408120546001600160a01b03166124845760405162461bcd60e51b815260206004820152602c60248201527f4552433732313a206f70657261746f7220717565727920666f72206e6f6e657860448201527f697374656e7420746f6b656e000000000000000000000000000000000000000060648201526084016107df565b600061248f83611553565b9050806001600160a01b0316846001600160a01b031614806124d657506001600160a01b0380821660009081526006602090815260408083209388168352929052205460ff165b806124fa5750836001600160a01b03166124ef84610759565b6001600160a01b0316145b949350505050565b826001600160a01b031661251582611553565b6001600160a01b0316146125915760405162461bcd60e51b815260206004820152602560248201527f4552433732313a207472616e736665722066726f6d20696e636f72726563742060448201527f6f776e657200000000000000000000000000000000000000000000000000000060648201526084016107df565b6001600160a01b03821661260c5760405162461bcd60e51b8152602060048201526024808201527f4552433732313a207472616e7366657220746f20746865207a65726f2061646460448201527f726573730000000000000000000000000000000000000000000000000000000060648201526084016107df565b61261760008261237f565b6001600160a01b03831660009081526004602052604081208054600192906126409084906149e4565b90915550506001600160a01b038216600090815260046020526040812080546001929061266e9084906147f3565b9091555050600081815260036020526040808220805473ffffffffffffffffffffffffffffffffffffffff19166001600160a01b0386811691821790925591518493918716917fddf252ad1be2c89b69c2b068fc378daa952ba7f163c4a11628f55a4df523b3ef91a4505050565b80516020820120600854600091906126f49082614adc565b9392505050565b6040805160c0810182528681526020808201879052918101859052600384900b606082015260006080820181905260a0820181905260098054600181018255915281518051929360049092027f6e1540171b6c0c960b71a7020d9f60077f6af931a8bbf590da0223dacf75c7af01926127779284920190613c15565b5060208281015180516127909260018501920190613c15565b5060408201516002820155606082015160039182018054608085015160a090950151151568010000000000000000027fffffffffffffffffffffffffffffffffffffffffffffff00ffffffffffffffff63ffffffff968716640100000000027fffffffffffffffffffffffffffffffffffffffffffffffff00000000000000009093169490950b90951692909217919091179190911691909117905560095460009061283e906001906149e4565b905061287f6040518060400160405280601181526020017f4f776e6572206f66206e6577204e46543a000000000000000000000000000000815250336135ef565b6128898282613662565b6128ad604051806060016040528060328152602001614b9a60329139878784612e2c565b604080516001600160a01b0384168152602081018390527f4cc0a9c4a99ddc700de1af2c9f916a7cbfdb71f14801ccff94061ad1ef8a8040910160405180910390a1505050505050565b806009838154811061290b5761290b614b1c565b906000526020600020906004020160030160086101000a81548160ff0219169083151502179055505050565b600061299d6040518060400160405280600e81526020017f4e756d62657220726f6c6c65643a000000000000000000000000000000000000815250600f6000866001600160a01b03166001600160a01b03168152602001908152602001600020546137b1565b6129a8826001614833565b6001600160a01b0384166000908152600f602052604090205460ff919091161015905092915050565b612208816040516024016129e591906144f4565b60408051601f198184030181529190526020810180517bffffffffffffffffffffffffffffffffffffffffffffffffffffffff167f41304fac00000000000000000000000000000000000000000000000000000000179052613820565b6010546040517f40c10f190000000000000000000000000000000000000000000000000000000081526001600160a01b03848116600483015260248201849052909116906340c10f1990604401600060405180830381600087803b158015612aa957600080fd5b505af1158015610dd6573d6000803e3d6000fd5b60098281548110612ad057612ad0614b1c565b600091825260209091206003600490920201810154612af0910b826148a7565b60098381548110612b0357612b03614b1c565b906000526020600020906004020160030160048282829054906101000a900463ffffffff16612b32919061480b565b92506101000a81548163ffffffff021916908363ffffffff1602179055506103e860098381548110612b6657612b66614b1c565b6000918252602090912060049091020160030154640100000000900463ffffffff161061176057600060098381548110612ba257612ba2614b1c565b600091825260209091206003600490920201810154612bc3910b60016147aa565b6103e860098581548110612bd957612bd9614b1c565b906000526020600020906004020160030160049054906101000a900463ffffffff16612c0591906149fb565b612c0f91906148a7565b90506109318382613841565b600a80546001600160a01b0383811673ffffffffffffffffffffffffffffffffffffffff19831681179093556040519116919082907f8be0079c531659141344cd1fd0a4f28419497f9722a3daafe3b4186f6b6457e090600090a35050565b6000828152600d602052604090205463ffffffff16612cdb5760405162461bcd60e51b815260206004820152600c60248201527f4d6f64756c6f207a65726f21000000000000000000000000000000000000000060448201526064016107df565b6000828152600d6020526040812054612cfa9063ffffffff1683614adc565b612d059060016147f3565b6000848152600e60209081526040808320546001600160a01b03168352600f90915280822083905551919250829185917f909dd726737b7ffa4ae9d137e9edebe8a74a9c2910a4b60e8112f93ab217083791a3505050565b816001600160a01b0316836001600160a01b03161415612dbf5760405162461bcd60e51b815260206004820152601960248201527f4552433732313a20617070726f766520746f2063616c6c65720000000000000060448201526064016107df565b6001600160a01b03838116600081815260066020908152604080832094871680845294825291829020805460ff191686151590811790915591519182527f17307eab39ab6107e8899845ad3d59bd9653f200f220920489ca2b5937696c31910160405180910390a3505050565b610a4f84848484604051602401612e46949392919061458a565b60408051601f198184030181529190526020810180517bffffffffffffffffffffffffffffffffffffffffffffffffffffffff167f9fd009f500000000000000000000000000000000000000000000000000000000179052613820565b612eae848484612502565b612eba848484846138e2565b610a4f5760405162461bcd60e51b815260206004820152603260248201527f4552433732313a207472616e7366657220746f206e6f6e20455243373231526560448201527f63656976657220696d706c656d656e746572000000000000000000000000000060648201526084016107df565b606081612f6c57505060408051808201909152600181527f3000000000000000000000000000000000000000000000000000000000000000602082015290565b8160005b8115612f965780612f8081614ac1565b9150612f8f9050600a83614893565b9150612f70565b60008167ffffffffffffffff811115612fb157612fb1614b32565b6040519080825280601f01601f191660200182016040528015612fdb576020820181803683370190505b5090505b84156124fa57612ff06001836149e4565b9150612ffd600a86614adc565b6130089060306147f3565b60f81b81838151811061301d5761301d614b1c565b60200101907effffffffffffffffffffffffffffffffffffffffffffffffffffffffffffff1916908160001a905350613057600a86614893565b9450612fdf565b80516060908061307e575050604080516020810190915260008152919050565b6000600361308d8360026147f3565b6130979190614893565b6130a290600461497b565b905060006130b18260206147f3565b67ffffffffffffffff8111156130c9576130c9614b32565b6040519080825280601f01601f1916602001820160405280156130f3576020820181803683370190505b5090506000604051806060016040528060408152602001614bcc604091399050600181016020830160005b8681101561317f576003818a01810151603f601282901c8116860151600c83901c8216870151600684901c831688015192909316870151600891821b60ff94851601821b92841692909201901b91160160e01b83526004909201910161311e565b50600386066001811461319957600281146131e35761320b565b7f3d3d0000000000000000000000000000000000000000000000000000000000007ffffffffffffffffffffffffffffffffffffffffffffffffffffffffffffffffe83015261320b565b7f3d000000000000000000000000000000000000000000000000000000000000006000198301525b505050918152949350505050565b610a4f848484846040516024016132339493929190614532565b60408051601f198184030181529190526020810180517bffffffffffffffffffffffffffffffffffffffffffffffffffffffff167fde68f20a00000000000000000000000000000000000000000000000000000000179052613820565b6109318383836040516024016132a89392919061468e565b60408051601f198184030181529190526020810180517bffffffffffffffffffffffffffffffffffffffffffffffffffffffff167fa3f5c73900000000000000000000000000000000000000000000000000000000179052613820565b600a546000906001600160a01b031633146133625760405162461bcd60e51b815260206004820181905260248201527f4f776e61626c653a2063616c6c6572206973206e6f7420746865206f776e657260448201526064016107df565b6001600160a01b0383166000908152600f60205260409020546109c414156133f25760405162461bcd60e51b815260206004820152602b60248201527f5761697420666f7220796f7572206f74686572204d6f6e7320746f2066696e6960448201527f7368206669676874696e6700000000000000000000000000000000000000000060648201526084016107df565b6134316040518060400160405280601481526020017f524e4720436f6e74726163742061646472657373000000000000000000000000815250306135ef565b600c546040517f70a082310000000000000000000000000000000000000000000000000000000081523060048201527f00000000000000000000000000000000000000000000000000000000000000006001600160a01b0316906370a082319060240160206040518083038186803b1580156134ac57600080fd5b505afa1580156134c0573d6000803e3d6000fd5b505050506040513d601f19601f820116820180604052508101906134e4919061408d565b10156135325760405162461bcd60e51b815260206004820152601c60248201527f4e6f7420656e6f756768204c494e4b20696e20636f6e74726163742e0000000060448201526064016107df565b613540600b54600c54613a8f565b6000818152600d6020908152604080832080547fffffffffffffffffffffffffffffffffffffffffffffffffffffffff000000001663ffffffff8816179055600e8252808320805473ffffffffffffffffffffffffffffffffffffffff19166001600160a01b038916908117909155808452600f9092528083206109c49055519293509183917f923de4fc4aece24a78a9e4ca3009c571a742f81ac2c004a229224b0fd1883bdd91a392915050565b6117608282604051602401613605929190614507565b60408051601f198184030181529190526020810180517bffffffffffffffffffffffffffffffffffffffffffffffffffffffff167f319af33300000000000000000000000000000000000000000000000000000000179052613820565b6001600160a01b0382166136b85760405162461bcd60e51b815260206004820181905260248201527f4552433732313a206d696e7420746f20746865207a65726f206164647265737360448201526064016107df565b6000818152600360205260409020546001600160a01b03161561371d5760405162461bcd60e51b815260206004820152601c60248201527f4552433732313a20746f6b656e20616c7265616479206d696e7465640000000060448201526064016107df565b6001600160a01b03821660009081526004602052604081208054600192906137469084906147f3565b9091555050600081815260036020526040808220805473ffffffffffffffffffffffffffffffffffffffff19166001600160a01b03861690811790915590518392907fddf252ad1be2c89b69c2b068fc378daa952ba7f163c4a11628f55a4df523b3ef908290a45050565b61176082826040516024016137c792919061466c565b60408051601f198184030181529190526020810180517bffffffffffffffffffffffffffffffffffffffffffffffffffffffff167f9710a9d0000000000000000000000000000000000000000000000000000000001790525b80516a636f6e736f6c652e6c6f67602083016000808483855afa5050505050565b60016009838154811061385657613856614b1c565b60009182526020822060036004909202018101805490929161387a9185910b6147aa565b92506101000a81548163ffffffff021916908360030b63ffffffff16021790555080600983815481106138af576138af614b1c565b906000526020600020906004020160030160046101000a81548163ffffffff021916908363ffffffff1602179055505050565b60006001600160a01b0384163b15613a84576040517f150b7a020000000000000000000000000000000000000000000000000000000081526001600160a01b0385169063150b7a029061393f903390899088908890600401614443565b602060405180830381600087803b15801561395957600080fd5b505af1925050508015613989575060408051601f3d908101601f1916820190925261398691810190613f2e565b60015b613a39573d8080156139b7576040519150601f19603f3d011682016040523d82523d6000602084013e6139bc565b606091505b508051613a315760405162461bcd60e51b815260206004820152603260248201527f4552433732313a207472616e7366657220746f206e6f6e20455243373231526560448201527f63656976657220696d706c656d656e746572000000000000000000000000000060648201526084016107df565b805181602001fd5b7fffffffff00000000000000000000000000000000000000000000000000000000167f150b7a02000000000000000000000000000000000000000000000000000000001490506124fa565b506001949350505050565b60007f00000000000000000000000000000000000000000000000000000000000000006001600160a01b0316634000aea07f000000000000000000000000000000000000000000000000000000000000000084866000604051602001613aff929190918252602082015260400190565b6040516020818303038152906040526040518463ffffffff1660e01b8152600401613b2c9392919061447f565b602060405180830381600087803b158015613b4657600080fd5b505af1158015613b5a573d6000803e3d6000fd5b505050506040513d601f19601f82011682018060405250810190613b7e9190613ed2565b5060008381526020818152604080832054815180840188905280830185905230606082015260808082018390528351808303909101815260a090910190925281519183019190912086845292909152613bd89060016147f3565b60008581526020818152604091829020929092558051808301879052808201849052815180820383018152606090910190915280519101206124fa565b828054613c2190614a86565b90600052602060002090601f016020900481019282613c435760008555613c89565b82601f10613c5c57805160ff1916838001178555613c89565b82800160010185558215613c89579182015b82811115613c89578251825591602001919060010190613c6e565b50613c95929150613c99565b5090565b5b80821115613c955760008155600101613c9a565b600067ffffffffffffffff80841115613cc957613cc9614b32565b604051601f8501601f19908116603f01168101908282118183101715613cf157613cf1614b32565b81604052809350858152868686011115613d0a57600080fd5b858560208301376000602087830101525050509392505050565b600082601f830112613d3557600080fd5b6126f483833560208501613cae565b600060208284031215613d5657600080fd5b81356126f481614b48565b600060208284031215613d7357600080fd5b81516126f481614b48565b60008060408385031215613d9157600080fd5b8235613d9c81614b48565b91506020830135613dac81614b48565b809150509250929050565b600080600060608486031215613dcc57600080fd5b8335613dd781614b48565b92506020840135613de781614b48565b929592945050506040919091013590565b60008060008060808587031215613e0e57600080fd5b8435613e1981614b48565b93506020850135613e2981614b48565b925060408501359150606085013567ffffffffffffffff811115613e4c57600080fd5b8501601f81018713613e5d57600080fd5b613e6c87823560208401613cae565b91505092959194509250565b60008060408385031215613e8b57600080fd5b8235613e9681614b48565b91506020830135613dac81614b5d565b60008060408385031215613eb957600080fd5b8235613ec481614b48565b946020939093013593505050565b600060208284031215613ee457600080fd5b81516126f481614b5d565b60008060408385031215613f0257600080fd5b50508035926020909101359150565b600060208284031215613f2357600080fd5b81356126f481614b6b565b600060208284031215613f4057600080fd5b81516126f481614b6b565b60008060408385031215613f5e57600080fd5b823567ffffffffffffffff811115613f7557600080fd5b613f8185828601613d24565b9250506020830135613dac81614b48565b60008060408385031215613fa557600080fd5b823567ffffffffffffffff80821115613fbd57600080fd5b613fc986838701613d24565b93506020850135915080821115613fdf57600080fd5b50613fec85828601613d24565b9150509250929050565b60008060006060848603121561400b57600080fd5b833567ffffffffffffffff8082111561402357600080fd5b61402f87838801613d24565b9450602086013591508082111561404557600080fd5b5061405286828701613d24565b925050604084013560ff8116811461406957600080fd5b809150509250925092565b60006020828403121561408657600080fd5b5035919050565b60006020828403121561409f57600080fd5b5051919050565b600081518084526140be816020860160208601614a43565b601f01601f19169290920160200192915050565b600081516140e4818560208601614a43565b9290920192915050565b8054600090600181811c908083168061410857607f831692505b602080841082141561412a57634e487b7160e01b600052602260045260246000fd5b81801561413e576001811461414f5761417c565b60ff1986168952848901965061417c565b60008881526020902060005b868110156141745781548b82015290850190830161415b565b505084890196505b50505050505092915050565b7f7b226e616d65223a202200000000000000000000000000000000000000000000815260006141ba600a83018a6140ee565b7f202d2d20494420233a2000000000000000000000000000000000000000000000815288516141f081600a840160208d01614a43565b7f222c20226465736372697074696f6e223a20225468697320697320616e204e46600a92909101918201527f542074686174206c6574732070656f706c6520706c617920746865205543334d602a8201527f6f6e2047616d65222c2022696d616765223a2022000000000000000000000000604a820152614274605e8201896140ee565b90507f222c202261747472696275746573223a205b207b202274726169745f7479706581527f223a2022444e41222c202276616c7565223a2000000000000000000000000000602082015286516142d2816033840160208b01614a43565b6143ef6143c66143c061439761439161434261433c6033888a01017f7d2c207b202274726169745f74797065223a20224c6576656c222c202276616c81527f7565223a20000000000000000000000000000000000000000000000000000000602082015260250190565b8d6140d2565b7f7d2c207b202274726169745f74797065223a2022457870222c202276616c756581527f223a200000000000000000000000000000000000000000000000000000000000602082015260230190565b8a6140d2565b7f2c20226d61785f76616c7565223a2000000000000000000000000000000000008152600f0190565b876140d2565b7f7d5d7d0000000000000000000000000000000000000000000000000000000000815260030190565b9b9a5050505050505050505050565b7f646174613a6170706c69636174696f6e2f6a736f6e3b6261736536342c00000081526000825161443681601d850160208701614a43565b91909101601d0192915050565b60006001600160a01b0380871683528086166020840152508360408301526080606083015261447560808301846140a6565b9695505050505050565b6001600160a01b03841681528260208201526060604082015260006144a760608301846140a6565b95945050505050565b6020808252825182820181905260009190848201906040850190845b818110156144e8578351835292840192918401916001016144cc565b50909695505050505050565b6020815260006126f460208301846140a6565b60408152600061451a60408301856140a6565b90506001600160a01b03831660208301529392505050565b60808152600061454560808301876140a6565b828103602084015261455781876140a6565b9050828103604084015261456b81866140a6565b9050828103606084015261457f81856140a6565b979650505050505050565b60808152600061459d60808301876140a6565b82810360208401526145af81876140a6565b905082810360408401526145c381866140a6565b91505082606083015295945050505050565b60c0815260006145e860c08301896140a6565b82810360208401526145fa81896140a6565b9150508560408301528460030b606083015263ffffffff8416608083015282151560a0830152979650505050505050565b60808152600061463e60808301876140a6565b828103602084015261465081876140a6565b60ff959095166040840152505090151560609091015292915050565b60408152600061467f60408301856140a6565b90508260208301529392505050565b6060815260006146a160608301866140a6565b846020840152828103604084015261447581856140a6565b602081526000825160c060208401526146d560e08401826140a6565b90506020840151601f198483030160408501526146f282826140a6565b91505060408401516060840152606084015160030b608084015263ffffffff60808501511660a084015260a0840151151560c08401528091505092915050565b60208152600082516080602084015261474e60a08401826140a6565b90506020840151601f1984830301604085015261476b82826140a6565b91505060ff60408501511660608401526060840151151560808401528091505092915050565b8281526040602082015260006124fa60408301846140a6565b60008160030b8360030b6000821282637fffffff038213811516156147d1576147d1614af0565b82637fffffff190382128116156147ea576147ea614af0565b50019392505050565b6000821982111561480657614806614af0565b500190565b600063ffffffff80831681851680830382111561482a5761482a614af0565b01949350505050565b600060ff821660ff84168060ff0382111561485057614850614af0565b019392505050565b60008160030b8360030b8061486f5761486f614b06565b6000198114637fffffff198314161561488a5761488a614af0565b90059392505050565b6000826148a2576148a2614b06565b500490565b600063ffffffff808416806148be576148be614b06565b92169190910492915050565b600060ff8316806148dd576148dd614b06565b8060ff84160491505092915050565b60008160030b8360030b637fffffff60008213600084138383048511828216161561491957614919614af0565b637fffffff19600085128682058612818416161561493957614939614af0565b6000871292508582058712848416161561495557614955614af0565b8585058712818416161561496b5761496b614af0565b5050509290910295945050505050565b600081600019048311821515161561499557614995614af0565b500290565b60008160030b8360030b6000811281637fffffff19018312811516156149c2576149c2614af0565b81637fffffff0183138116156149da576149da614af0565b5090039392505050565b6000828210156149f6576149f6614af0565b500390565b600063ffffffff83811690831681811015614a1857614a18614af0565b039392505050565b600060ff821660ff841680821015614a3a57614a3a614af0565b90039392505050565b60005b83811015614a5e578181015183820152602001614a46565b83811115610a4f5750506000910152565b600081614a7e57614a7e614af0565b506000190190565b600181811c90821680614a9a57607f821691505b60208210811415614abb57634e487b7160e01b600052602260045260246000fd5b50919050565b6000600019821415614ad557614ad5614af0565b5060010190565b600082614aeb57614aeb614b06565b500690565b634e487b7160e01b600052601160045260246000fd5b634e487b7160e01b600052601260045260246000fd5b634e487b7160e01b600052603260045260246000fd5b634e487b7160e01b600052604160045260246000fd5b6001600160a01b038116811461220857600080fd5b801515811461220857600080fd5b7fffffffff000000000000000000000000000000000000000000000000000000008116811461220857600080fdfe4d696e746564206e6577205543334d6f6e2077697468206e616d652025732c20696d61676520257320616e642049442025734142434445464748494a4b4c4d4e4f505152535455565758595a6162636465666768696a6b6c6d6e6f707172737475767778797a303132333435363738392b2f516d5547416742357933517169485145444d58364443776373656d623839364c73755942786d5134716251726a71a26469706673582212208cf336a9021f3c04c60ad536c00e6a9dcdf222030ad4381ebcac1a7be652100364736f6c63430008070033",
  "linkReferences": {},
  "deployedLinkReferences": {}
}